:020000040800F2
:1000000048320020D1010008690A0008B50900083B
:10001000F1090008390600086B55000800000000CF
:10002000000000000000000000000000B1510008C6
:100030009908000800000000F3040008C5520008F9
:10004000EB010008EB010008EB010008EB010008E0
:10005000EB010008EB010008EB010008EB010008D0
:10006000EB010008EB010008EB010008EB010008C0
:10007000EB010008EB010008EB010008EB010008B0
:10008000EB010008EB010008EB010008EB010008A0
:10009000EB010008EB010008EB010008EB01000890
:1000A000EB010008EB010008EB010008EB01000880
:1000B000EB010008EB010008EB010008EB01000870
:1000C000EB010008EB010008EB010008EB01000860
:1000D000EB01000841530008EB010008EB010008A8
:1000E000EB010008EB010008EB01000800F002F84A
:1000F00000F05FF80AA090E8000C82448344AAF163
:100100000107DA4501D100F054F8AFF2090EBAE860
:100110000F0013F0010F18BFFB1A43F0010318473B
:100120002C5B00004C5B00000A444FF0000C10F800
:10013000013B13F0070408BF10F8014B1D1108BF65
:1001400010F8015B641E05D010F8016B641E01F805
:10015000016BF9D113F0080F1EBF10F8014BAD1C55
:100160000C1B09D16D1E58BF01F801CBFAD505E073
:1001700014F8016B01F8016B6D1EF9D59142D6D3CD
:10018000704700000023002400250026103A28BFF5
:1001900078C1FBD8520728BF30C148BF0B607047F9
:1001A000642900F09180002070471FB51FBD10B575
:1001B00010BD00F051F91146FFF7F7FF05F09EFA68
:1001C00000F06FF903B4FFF7F2FF03BC05F0CFF9BD
:1001D0000948804709480047FEE7FEE7FEE7FEE7DB
:1001E000FEE7FEE7FEE7FEE7FEE7FEE70448054917
:1001F000054A064B70470000E1520008ED00000878
:10020000482C002048320020482E0020482E002094
:1002100072B6704762B67047EFF3108072B67047DF
:1002200080F31088704730BF704720BF7047B0FA26
:1002300080F0704790FAA0F0B0FA80F0704790FA22
:10024000A0F07047704700000FB4044910B503AA2E
:10025000029800F0D3F810BC5DF814FB2C000020CD
:100260002DE9F0410E460446002020622046E16858
:10027000884730B3252805D0D4E901219047206A6A
:10028000401CF2E7E168204600278847050018D0A7
:10029000A5F14100192802D820354FF400673246F5
:1002A000294620462760FFF77BFF40B1012804D094
:1002B000F61D26F007060836D8E7361DD6E728468D
:1002C000DAE7206ABDE8F0812DE9F0410646002416
:1002D00010687529314616A510D0AFF300800028AC
:1002E00002DA404213A507E031688A0701D512A55A
:1002F00002E0490704D511A5012401E0AFF3008015
:1003000000210A2206F1240709E0B0FBF2FCB0FB51
:10031000F2F302FB1C00303078541846491C0028C8
:10032000F3D123462A463046BDE8F04100F00CB830
:10033000000000002D0000002B0000002000000045
:1003400070477047704770472DE9F0470D46994652
:100350009246044600F124080168880604D5E06945
:1003600021F01001216000E00120A84201DD471BBF
:1003700000E00027A1697A1902EB0900081AA061C0
:100380002078C00602D42046AFF30080002608E0A3
:10039000D4E901211AF806009047206A401C761C17
:1003A00020624E45F4DB2078C0060AD52046AFF324
:1003B000008006E0D4E9012130209047206A401CEB
:1003C0002062381EA7F10107F4DC07E0D4E901211F
:1003D00018F805009047206A401C2062281EA5F1ED
:1003E0000105F3DC2046AFF300802078000602D53B
:1003F0000220BDE8F0870120FBE70000074B70B545
:100400000D467B4400F011F80446284600F020F821
:1004100010B14FF0FF3070BD204670BDDF510000BD
:1004200001694A1C02610878704700B58FB0CDE9B8
:1004300001310021059105497944CDE903101146A8
:100440006846FFF70DFF0FB000BD0000E5FFFFFF9E
:10045000007B00F080007047754600F02BF8AE4638
:1004600005006946534620F00700854618B020B5C0
:10047000FFF7BCFEBDE820404FF000064FF000073C
:100480004FF000084FF0000B21F00701AC46ACE83C
:10049000C009ACE8C009ACE8C009ACE8C0098D46A9
:1004A000704710B50446AFF300802046BDE8104009
:1004B000FFF788BE00487047E42B00201D484FF628
:1004C000FF710170002080F309881B48016881F3E7
:1004D00008881A484FF08051016062B6FEE717485D
:1004E0004FF080510160704714484FF08051016017
:1004F000704772B6EFF3098028B1203880E8F00F1A
:100500000F490968086000B50E4880475DF804EBA4
:100510000D480E490A78027009480D490A680260C0
:10052000106890E8F00F203080F309884EF0040E38
:1005300062B6704722ED00E05000002004ED00E0BC
:1005400024010020B11C0008B2000020B3000020EC
:100550002801002010B509480068401C07490860C0
:100560000846006841F2883190FBF1F201FB12006D
:1005700010B903A0FFF768FE10BD00002C01002099
:1005800049646C65205461736B210D0A0000000002
:1005900010B5002400BF00BFFFF73EFE044600BFB9
:1005A00000F0E6F800BF0F480F4908600F481049F7
:1005B0000860104810490860104811490860114847
:1005C0001149086011481249086012481249086030
:1005D00000BF00F0E7F800BF2046FFF721FE00BF94
:1005E00000BF10BD1F0600085C00002021060008A7
:1005F0006000002023060008640000205505000864
:10060000680000201D0600086C0000202506000878
:100610007000002027060008740000207047704713
:10062000704770477047704700B585B0684604F062
:1006300055FD019805B000BD00BFFEE710B500F004
:10064000FBF800F003F800F0F3F810BD70B50026D9
:10065000002018490880184908801849086018497E
:1006600008601849086018490860184908600024A3
:1006700000BFFFF7D1FD064600BF00250BE00020BC
:100680001049086000F074F800F08CF80D4800681C
:100690000444681C85B2002DF1D00C480460002091
:1006A000084908600849086000BF3046FFF7B8FDF8
:1006B00000BF70BD380000203A0000203C00002040
:1006C00040000020480000204C0000204400002092
:1006D00001460846044A1268904203D9024A126849
:1006E000801A00E0002070474400002070B500250B
:1006F00000BFFFF791FD054600BF0648046800BF34
:100700002846FFF78DFD00BF2046FFF7E1FF0646B4
:10071000304670BD4800002070B50025FFF7E6FFA9
:10072000044600BFFFF778FD054600BF00200449DE
:10073000086000BF2846FFF773FD00BF204670BD6C
:100740004800002070B5002500BFFFF765FD054695
:1007500000BF0648046800BF2846FFF761FD00BFE0
:100760002046FFF7B5FF0646304670BD4C0000201E
:1007700010B509480088401C0749088007480088D0
:1007800018B900F083F80649086004480088401C46
:100790000249088010BD0000380000203A00002007
:1007A0003C00002010B50F480088401E0D4908800D
:1007B00008460088A0B900F069F80B4908600846AF
:1007C00000680A490968441A09480068A04201D231
:1007D0000748046007480068A04201D20548046049
:1007E00010BD00003A000020400000203C00002026
:1007F000480000204C00002010B5002400BF00BFBE
:10080000FFF70AFD044600BFFFF7B2FF00BF10214B
:10081000064800F0EFF800BFFFF7C4FF00BF204616
:10082000FFF7FEFC00BF00BF10BD0000501000200D
:1008300010B5FFF7E1FF10BD10B5002002490860B8
:1008400000F00AF810BD00003400002001490860E3
:10085000704700003400002010B5FFF7E5FE0446A5
:100860000848006840F0807006490860002006498A
:1008700048600846006840F0010008602046FFF725
:10088000E5FF10BDFCED00E0001000E00149486804
:1008900070470000001000E070472DE9F04102466B
:1008A00000250026002000230024002791F803C023
:1008B0000CF00F0591F803C00CF0100CBCF1000F08
:1008C00003D091F802C04CEA050591F800C0BCF1D4
:1008D000000F31D0146800202BE04FF0010C0CFA0F
:1008E00000F3B1F800C00CEA03069E4220D1830059
:1008F0004FF00F0C0CFA03F7BC4305FA03FC4CEA6B
:10090000040491F803C0BCF1280F06D14FF0010C8C
:100910000CFA00FCC2F814C00AE091F803C0BCF164
:10092000480F05D14FF0010C0CFA00FCC2F810C0C2
:10093000401C0828D1D31460B1F800C0BCF1FF0FEF
:1009400034DD546800202EE000F1080C4FF001085F
:1009500008FA0CF3B1F800C00CEA03069E4221D15C
:1009600083004FF00F0C0CFA03F7BC4305FA03FCAD
:100970004CEA040491F803C0BCF1280F05D100F142
:10098000080C08FA0CF8C2F8148091F803C0BCF106
:10099000480F07D100F1080C4FF0010808FA0CF8D5
:1009A000C2F81080401C0828CED35460BDE8F08106
:1009B0000161704700BFFEE708B50121082004F07F
:1009C0007DFB4FF48050ADF8000010208DF803003F
:1009D00003208DF8020069460448FFF75EFF4FF4DC
:1009E00080510248FFF7E4FF08BD0000000C014001
:1009F00000BFFEE730B505460C46224600212846DA
:100A000000F001F830BD2DE9F04103460C461746D1
:100A10000FB9BDE8F08103B9FBE70025002202E031
:100A20002D022543521C042AFAD3384603F0030C46
:100A30001946BCF1000F08D0624603E001F8014BF3
:100A4000401E521C08B1042AF8D30E4601E020C60D
:100A5000001F0428FBD2314602E001F8014B401E82
:100A60000028FAD100BFD4E77047000070B500211C
:100A700000230F22C47804B3154C246804F4E06406
:100A8000C4F5E064210AC1F10403CA40447804FAC1
:100A900003F184781440214309010E4C0678A155D6
:100AA000047804F01F050124AC4005786D11AD00F9
:100AB00005F1E025C5F8004109E0047804F01F05C0
:100AC0000124AC40044D0678761145F8264070BDEF
:100AD0000CED00E000E400E080E100E002490143A9
:100AE000024A1160704700000000FA050CED00E0BA
:100AF0007047000010B50348006810B10148006855
:100B0000804710BD6800002070B5044600F0C2F8B0
:100B10000020484908704849087048490870484909
:100B200008604849086048490870484908704849C1
:100B300008704849086048490860484908604849C1
:100B40000870484800680A21B0FBF1F04649086087
:100B50004648006858B14648056845B143480668AC
:100B600003E0761E002028602D1D002EF9D1002004
:100B700040490860404908604049086040490860B1
:100B80004049086040490860404908604049087091
:100B900002F044FA02F042FB204601F09FFB20885D
:100BA00000B170BD204601F0B9FF208800B1F8E720
:100BB000204601F0BFFF208800B1F2E7204602F096
:100BC000A3F8208800B1ECE7204602F057FA20880D
:100BD00000B1E6E7204602F0A7FC208800B1E0E77C
:100BE000204603F011F8208800B1DAE7204601F032
:100BF00001FF208800B1D4E7204601F00BFD2088DA
:100C000000B1CEE7204604F067F8208800B1C8E7BD
:100C1000204602F03DFF208800B1C2E7204604F0E4
:100C2000B7F8208800B1BCE701F07EFAFFF760FF5B
:100C300000BFB6E77C00002084000020CC0000202C
:100C40002401002028010020B2000020B300002071
:100C5000B4000020C0000020C4000020C800002014
:100C6000D40000209C5A0008D00000206C5A0008D4
:100C7000685A00085C00002060000020640000202A
:100C8000680000206C00002070000020740000202C
:100C9000020100200A4A1168002002E0002204C17B
:100CA000401C084A12689042F8D3054A1268054B66
:100CB0001B6802EB8302121F034B1A60704700008F
:100CC000685A00086C5A0008500000200848007854
:100CD000012800D0704707480078FA2800DBF9E7C0
:100CE00004480078401C0349087000BFF2E7000088
:100CF000840000207C00002010B500242E480078DD
:100D0000012800D010BD00BFFFF786FA044600BFDF
:100D10002A48007828B900BF2046FFF781FA00BFB3
:100D2000F0E726480078401E2449087008460078FD
:100D3000002805DD00BF2046FFF772FA00BFE1E79B
:100D40001F480078002805DD00BF2046FFF768FA3D
:100D500000BFD7E702F04EF91A490870084600783C
:100D600000EB4000184951F8200018490860084677
:100D7000006817490968884205D100BF2046FFF77F
:100D80004FFA00BFBEE711480068D0F89000401C41
:100D90000E490968C1F890000E480068401C0D49D2
:100DA00008604FF080500C49086000BF2046FFF7F4
:100DB00037FA00BF00BFA5E7840000207C000020B8
:100DC000CC000020B30000208C2600202801002049
:100DD00024010020F800002004ED00E010B50024FC
:100DE00020480078002800DD10BD1F48007800284A
:100DF00000DDF9E700BFFFF70FFA044600BF02F07D
:100E0000F9F81A4908700846007800EB40001849C4
:100E100051F820001749086008460068164909681B
:100E2000884205D100BF2046FFF7FAF900BFDBE793
:100E300010480068D0F89000401C0E490968C1F8BD
:100E400090000E480068401C0C4908604FF080502C
:100E50000B49086000BF2046FFF7E2F900BF00BF62
:100E6000C2E700007C000020CC000020B30000207E
:100E70008C2600202801002024010020F8000020FA
:100E800004ED00E070B5044600251A4800780028FB
:100E900003DD46F66250208070BD174800780128B7
:100EA00003D045F689602080F6E714480078FA28D8
:100EB00003DB45F209202080EEE700BF00BFFFF70B
:100EC000ABF9054600BFFFF753FC00BF0B480078A5
:100ED000401C0A49087002F085FA00BFFFF762FC67
:100EE00000BF2846FFF79CF900BF00BF002020800C
:100EF00000BFD1E77C00002084000020CC0000204F
:100F00002DE9F04105460C461646002700BF00BFFC
:100F1000FFF782F9074600BFFFF72AFC00BF012D4B
:100F200003D000200E49087002E001200C4908702F
:100F300014B10C48046006E00B4800680A21B0FBBD
:100F4000F1F00849086000BFFFF72CFC00BF3846ED
:100F5000FFF766F900BF00BF00203080BDE8F081D8
:100F6000D4000020D00000209C5A000870B5044630
:100F7000002523480078002803DD46F665502080D0
:100F800070BD20480078012803D045F68960208094
:100F9000F6E71D48007818B946F664502080EFE760
:100FA00000BF00BFFFF738F9054600BFFFF7E0FBC1
:100FB00000BF15480078401E1349087008460078A5
:100FC00000280CDD00BFFFF7EDFB00BF2846FFF750
:100FD00027F900BF00BF46F663502080D0E702F03B
:100FE0000FFA00BFFFF7DEFB00BF2846FFF718F936
:100FF00000BF00BFFFF7F2FE0020208000BFBFE768
:101000007C00002084000020CC00002010B50446A5
:1010100012480078E8B901F0EDFF11490870084660
:101020000078104908700E48007800EB40000E4927
:1010300051F820000D490860084600680C49086016
:10104000012006490870FFF739FA43F699202080FD
:1010500002E045F68A60208010BD00008400002078
:10106000B3000020B20000208C26002028010020C0
:10107000240100202DE9F04107464FF0000800BF91
:1010800000BFFFF7C9F8804600BFFFF771FB00BF44
:101090000020474908604749088047490880474978
:1010A0000860474908604749086047490860474960
:1010B00008604749088100BFFFF774FB00BF404646
:1010C000FFF7AEF800BF00BF00BF00BFFFF7A4F8F6
:1010D000804600BFFFF74CFB00BF3E48046800BFDE
:1010E000FFF760FB00BF4046FFF79AF800BF00BF64
:1010F00026E000BF00BFFFF78FF8804600BFFFF774
:1011000037FB00BF00207834E06320642060206358
:10111000A061A082E0826062A062FFF7B7FB20625C
:10112000783C04F164060020B081D4F8C04000BFD0
:10113000FFF738FB00BF4046FFF772F800BF00BF63
:10114000002CD6D100BF00BFFFF766F8804600BF75
:10115000FFF70EFB00BF2048056800BFFFF722FB2A
:1011600000BF4046FFF75CF800BF00BF16E000BFBD
:1011700000BFFFF751F8804600BFFFF7F9FA00BF44
:1011800005F120060020B081AD6900BFFFF70AFB22
:1011900000BF4046FFF744F800BF00BF002DE6D176
:1011A00003F062FC03F0F0FE00203880BDE8F0811F
:1011B0009800002092000020E2000020F4000020AF
:1011C000080100201401002080000020C40000203D
:1011D00080260020FC000020B8000020F8B504465E
:1011E00000266946364800F033FDBDF8000018B10E
:1011F000BDF800002080F8BD6A460021022000F002
:10120000A9FDBDF8000018B1BDF800002080F2E78C
:1012100000BF00BFFFF700F8064600BFFFF7A8FABF
:1012200000BF00202749086000BFFFF7BBFA00BFDE
:101230003046FEF7F5FF00BF00BF002522480068DA
:1012400022490968884205D91F4800681F49096872
:10125000B0FBF1F525B91C4800680A21B0FBF1F597
:101260006A460021284600F075FD6946144800F0E2
:10127000A5FABDF8000018B1BDF800002080BAE75B
:1012800000BF00BFFEF7C8FF064600BFFFF770FAB9
:1012900000BF00200E4908600A4800680D49086038
:1012A00001200D49087000BFFFF77CFA00BF3046EF
:1012B000FEF7B6FF00BF00BF0020208000BF9AE706
:1012C0001C2B0020E40000209C5A0008845A0008CF
:1012D000F4000020E8000020F000002010B50348D2
:1012E000006810B101480068804710BD6C00002004
:1012F0002DE9FF4F87B004469046DDE91BA5DDE9E7
:101300001496179F0020039095480078002805DD6B
:1013100047F24A1028800BB0BDE8F08F1CB947F2A5
:10132000AD102880F7E7B8F1000F03D147F24F1056
:101330002880F0E71EB946F62F602880EBE7894841
:101340000068874203D246F630602880E3E71698AB
:10135000B84203D346F631602880DCE7B9F1400F8C
:1013600003D346F273202880D5E7B9F1000F06D1E8
:101370007D48844203D046F273202880CBE7B9F140
:101380003F0F06D17948844203D046F2732028806B
:10139000C1E7204602F048FC002028800AF0010046
:1013A00090B10AF0020078B105960020069008E09E
:1013B0000021059801600598001D05900698401CC5
:1013C00006900698B842F3D3169806EB8000049076
:1013D000CDE9007A32464046049B0A9900F0D8FBDA
:1013E0000590C4F828800A98E0620898206284F882
:1013F0003790059820600498A06019986065199846
:1014000018B95B480068A06501E01998A0651A98B2
:1014100060606662A763A4F83CA04FF0000B08E090
:10142000002104F17C0040F82B100BF1010000F0CA
:10143000FF0BBBF1000FF3D004F16400189901F029
:10144000D9FB204600F09EF800BF00BF00BFFEF7AA
:10145000E3FE039000BFFFF78BF900BF454800781B
:10146000401C4449087008460078012801D101F069
:10147000B9FF00BFFFF796F900BF0398FEF7D0FE53
:1014800000BF00BF00BF94F8370001F0D3FD204635
:1014900001F00CFF204602F07DFB37480088401C1D
:1014A0003549088035480078012837D000BF00BF93
:1014B00000BFFEF7B1FE039000BFFFF759F900BF70
:1014C0002C480078401E2B49087008460078D0B997
:1014D00001F096FF2A48008800280BDD00BFFFF7C7
:1014E00061F900BF0398FEF79BFE00BF00BF01F04B
:1014F0004BFF11E000BFFFF755F900BF0398FEF75F
:101500008FFE00BF08E000BFFFF74CF900BF039853
:10151000FEF786FE00BF00BF00BFFCE600BF00BFB5
:1015200000BFFEF779FE039000BFFFF721F900BF6F
:1015300010480078401E0F4908700846007808B926
:1015400001F05EFF00BFFFF72DF900BF0398FEF723
:1015500067FE00BF00BF00BFFFF740FC00BFDAE638
:101560007C000020985A0008B8250020F0240020B4
:10157000D0000020CC0000200001002084000020CA
:101580009000002010B504460348006818B12046BA
:1015900001490968884710BD5C00002070B5044609
:1015A0000D46002678480078002803DD47F24E10EB
:1015B000288070BD7548844203D147F24C102880C2
:1015C000F7E77348844203D147F24D102880F0E7D3
:1015D0009CB900BF00BFFEF71FFE064600BFFFF725
:1015E000C7F800BF6B48046800BFFFF7DBF800BF17
:1015F0003046FEF715FE00BF00BF00BF00BF00BFB2
:10160000FEF70AFE064600BFFFF7B2F800BF6248C9
:101610000078401C6049087008460078012801D114
:1016200001F0E0FE00BFFFF7BDF800BF3046FEF757
:10163000F7FD00BF00BF00BF94F8360008282DD288
:10164000DFE800F004090E10080A0F11204601F02F
:101650006DFE5EE05DE000BF204603F0E9F958E072
:1016600000BF00BF00BF204603F0E2F994F8340049
:10167000082810D2DFE800F004070508090A0B0665
:1016800000BF00BF08E000BF00BF00BF00BF204692
:1016900001F001FC00E000BF00BF3AE000BF00BF66
:1016A00000BFFEF7B9FD064600BFFFF761F800BFB7
:1016B00039480078401E3849087008460078D0B98B
:1016C00001F09EFE3548008800280BDD00BFFFF7C3
:1016D00069F800BF3046FEF7A3FD00BF00BF01F070
:1016E00053FE11E000BFFFF75DF800BF3046FEF784
:1016F00097FD00BF08E000BFFFF754F800BF304679
:10170000FEF78EFD00BF00BF00BF46F62D602880AB
:101710004FE700BF04F1640001F04AFA204600F0F0
:1017200041F8204602F04EFA1D480088401E1C4930
:101730000880204602F078FAFF2084F8360000BFC7
:1017400000BF00BFFEF768FD064600BFFFF710F8B8
:1017500000BF11480078401E0F4908700846007805
:1017600008B901F04DFE00BFFFF71CF800BF30467E
:10177000FEF756FD00BF00BF00BF00202880FFF726
:101780002DFB00BF15E700007C000020F0240020A6
:10179000B825002024010020CC000020900000206B
:1017A0000001002010B504460348006818B1204627
:1017B00001490968884710BD600000207FB50446D4
:1017C0000D46002600BF00BFFEF726FD064600BFFF
:1017D000FEF7CEFF00BF1CB11748006884420CD151
:1017E00000BFFEF7DFFF00BF3046FEF719FD00BF68
:1017F00000BF47F2571028807FBD00BFFEF7D2FF21
:1018000000BF3046FEF70CFD00BF00BF0B4800785C
:1018100000280BDD0020009001900346024621467F
:10182000CDE90205064800F02DFFE5E729462046F0
:1018300002F0A6FB00BFDFE7240100207C000020AF
:101840005452455310B504460348006818B1204669
:1018500001490968884710BD640000202DE9F04760
:1018600080460E4614461D464FF000098C4800780D
:10187000002805DD46F2AE1028800020BDE8F08784
:101880001EB1B6F5004F02D100E000BF04E045F6FE
:10189000256028800020F1E700BF0CB10020206007
:1018A00000BF00BFFEF7B8FC814600BFFEF760FF37
:1018B00000BF7C480068406CB8B37A480068406C50
:1018C000401E78490968486476480068476C1CB136
:1018D00074480068006C2060FEF7D8FF7149096801
:1018E000096C401A6F490968C1F8A4006D48006886
:1018F000D0F8A8006B490968D1F8A410884207D233
:1019000068480068D0F8A40066490968C1F8A800D2
:1019100000BFFEF747FF00BF4846FEF781FC00BF4F
:1019200000BF002028803846A8E7FFE706F4004003
:1019300068B100BFFEF736FF00BF4846FEF770FCF7
:1019400000BF00BF46F2B0102880002096E756483E
:10195000007800280DDD00BFFEF724FF00BF4846D9
:10196000FEF75EFC00BF00BF46F6635028800020F3
:1019700084E700BF4C480078401C4B49087008467B
:101980000078012801D101F02DFD00BFFEF70AFF0C
:1019900000BF4846FEF744FC00BF00BF00BF4346FF
:1019A00007220021084601F0BBF900BF00BF00BFBD
:1019B000FEF732FC814600BFFEF7DAFE00BF3A4870
:1019C0000078401E384908700846007808B901F0D0
:1019D00017FD00BFFEF7E6FE00BF4846FEF720FCFD
:1019E00000BF00BF00BFFFF7F9F900BF00BFFEF75F
:1019F00013FC814600BFFEF7BBFE00BF294800680C
:101A000090F8350020B1012826D0032834D12CE0ED
:101A1000FCB124480068006C2060FEF737FF2149C4
:101A20000968096C401A1F490968C1F8A4001D48DB
:101A30000068D0F8A8001B490968D1F8A4108842B2
:101A400007D218480068D0F8A40016490968C1F800
:101A5000A8000020288013E01CB112480068006C28
:101A6000206046F2A91028800AE00CB10020206016
:101A700047F2D920288003E046F62E60288000BF78
:101A800000BF08480068476C00BFFEF78BFE00BF30
:101A90004846FEF7C5FB00BF00BF3846EEE6000033
:101AA0007C00002024010020CC0000202DE9F0471C
:101AB00005460E4617461C464FF0000A324800788D
:101AC000002804DD47F259102080BDE8F0871EB9D8
:101AD00046F2D5202080F8E71FB946F2D5202080B5
:101AE000F3E700BF00BFFEF797FB824600BFFEF79B
:101AF0003FFE00BF0DB925480568286878B900BFCA
:101B0000FEF750FE00BF5046FEF78AFB00BF00BF45
:101B100000203060386047F252102080D5E795F8F9
:101B20003C0000F0010078B900BFFEF73BFE00BFAB
:101B30005046FEF775FB00BF00BF002030603860E4
:101B400047F254102080C0E700BFFEF72BFE00BF15
:101B50005046FEF765FB00BF00BF4FF00008D5F808
:101B6000249003E009F1040908F10108D9F8000004
:101B70000028F7D0C6F80080A86BA0EB08003860FA
:101B80000020208000BFA0E77C000020240100206E
:101B9000F0B50446DDE9055602EB85004FF0807C88
:101BA000071F3846C7F800C0071F38463C60DFF8FB
:101BB0009CC0071F3846C7F800C04FF0123C071FF3
:101BC0003846C7F800C04FF0033C071F3846C7F837
:101BD00000C04FF0023C071F3846C7F800C0071F7F
:101BE00038463B60071F384639604FF0113C071FED
:101BF0003846C7F800C04FF0103C071F3846C7F8FA
:101C000000C04FF0093C071F3846C7F800C04FF02E
:101C1000083C071F3846C7F800C04FF0073C071FB5
:101C20003846C7F800C04FF0063C071F3846C7F8D3
:101C300000C04FF0053C071F3846C7F800C04FF002
:101C4000043C071F3846C7F800C0F0BDFD4000083F
:101C50007FB505460C461248854203D147F25B101A
:101C600020807FBD0F48854203D147F25C10208061
:101C7000F7E70D48007800280BDD00200090019068
:101C8000034602462946CDE90204084800F0FAFC62
:101C9000E7E72146284602F011FD00BFE1E700001A
:101CA000F0240020B82500207C0000205453555318
:101CB00070B52448006810B1224800688047FEF7DC
:101CC000E5FD04462048006820490968884215D08F
:101CD0001D480068D0F89800201A1B490968C1F80F
:101CE000940019480068D0F89C0017490968D1F899
:101CF0009410084414490968C1F89C00134800680E
:101D0000C0F89840FEF708FD05460F480068D0F877
:101D1000B400A84203D20C480068C0F8B4500A4886
:101D20000068D0F8B8000A490968884205D2084816
:101D3000006805490968C1F8B80000200449086036
:101D400070BD000070000020240100202801002048
:101D5000C80000202DE9F04105460E461446002734
:101D60004D480078002804DD47F275202080BDE84A
:101D7000F0814A480078002803DD46F66350208051
:101D8000F5E736B1022E05D0042E0AD0082E09D16F
:101D900001E000BF00BF1DB947F27E202080E6E7CA
:101DA00004E003E045F625602080E0E700BF00BFC7
:101DB00000BF00BFFEF730FA074600BFFEF7D8FCB1
:101DC00000BF36480078401C344908700846007847
:101DD000012801D101F006FB00BFFEF7E3FC00BFC4
:101DE0003846FEF71DFA00BF00BF00BF01202C4996
:101DF000096881F83600234632462946284800689B
:101E000002F038FD2088F0B100BF00BF00BFFEF730
:101E100003FA074600BFFEF7ABFC00BF1F4800787F
:101E2000401E1E4908700846007808B901F0E8FA1B
:101E300000BFFEF7B7FC00BF3846FEF7F1F900BF60
:101E400000BF00BF93E71648006801F06FFA00BFBB
:101E500000BF00BFFEF7E0F9074600BFFEF788FCB1
:101E600000BF0E480078401E0C49087008460078F4
:101E700008B901F0C5FA00BFFEF794FC00BF384670
:101E8000FEF7CEF900BF00BF00BFFEF7A7FF00209E
:101E9000208000BF6BE700007C000020CC00002009
:101EA000240100202DE9FF5F05460E46174698469F
:101EB000DDE90EA40020009081480078002804DDB0
:101EC00047F275202080BDE8FF9F7E4800780028FB
:101ED00003DD46F663502080F5E70AF00E0BBBF1F8
:101EE000000F09D0BBF1020F07D0BBF1040F10D0D7
:101EF000BBF1080F0ED101E000BF00BFB8F1000F29
:101F000006D12FB926B91DB947F27E202080DAE725
:101F100004E003E045F625602080D4E700BF2AF006
:101F20001E0008B1012000E0002003900398012862
:101F300003D145F625602080C5E7CAF30010029062
:101F40000298C0B9B8F57A7F03D347F27B2020808E
:101F5000B9E73B2F03DD47F27A202080B3E73B2E21
:101F600003DD47F279202080ADE7632D12DD47F2D3
:101F700078202080A7E742F20F70864203DD47F207
:101F8000792020809FE7B5F57A7F03DB47F2782040
:101F9000208098E74C48D0F800904FF4FA70B0FBDE
:101FA000F9F0404400FB09F04FF47A71B0FBF1F115
:101FB0004FF461606843C6EB061200EB82003844C0
:101FC00000FB091001900198002873D000BF00BFEA
:101FD00000BFFEF721F9009000BFFEF7C9FB00BF6C
:101FE00038480078401C37490870084600780128B6
:101FF00001D101F0F7F900BFFEF7D4FB00BF009854
:10200000FEF70EF900BF00BF00BF01202F4909688D
:1020100081F8360023465A462C480199006802F0A0
:1020200029FC2088F0B100BF00BF00BFFEF7F4F824
:10203000009000BFFEF79CFB00BF22480078401EC6
:10204000204908700846007808B901F0D9F900BFA6
:10205000FEF7A8FB00BF0098FEF7E2F800BF00BF44
:1020600000BF30E71948006801F060F900BF00BF09
:1020700000BFFEF7D1F8009000BFFEF779FB00BF6C
:1020800010480078401E0F4908700846007808B9CB
:1020900001F0B6F900BFFEF785FB00BF0098FEF720
:1020A000BFF800BF00BF00BFFEF798FE00202080F1
:1020B00003E0FFE747F27E20208000BF03E7000037
:1020C0007C000020CC0000209C5A00082401002045
:1020D00010B586B000F01EF8FEF7D8FB044605A840
:1020E00000210091CDE9011403900748007800EB2E
:1020F0004000064A02EB800100231A46044800F023
:10210000C1FA06B010BD0000B20000208C260020ED
:102110005449434B10B50348006810B101480068AA
:10212000804710BD74000020254A2649264A274AC8
:102130002749284A2848294A294A2A4A2A4A2B480C
:102140002B482C482C4A2D482D4A2E482E4A2F48E1
:102150002F4830483048314A314A324A3248334AAF
:10216000334A344834483548354836483648374885
:10217000374A384A384A394A39483A483A483B4A4D
:102180003B4A3C4A3C483D483D483E493E483F4A20
:102190003F4A404A404A414A414A424A4248434AE9
:1021A000434A44484448454A454A4648464A474ABD
:1021B00047484848484800BF00BF00BF704700007C
:1021C000E05A0008485C0008E15A0008E25A00089A
:1021D000E45A0008E85A0008EC5A0008E95A0008D6
:1021E000145B0008155B0008165B0008185B00080C
:1021F0001A5B00081C5B00081E5B0008205B0008DF
:10220000405B0008425B0008445B0008465B000836
:10221000485B00084A5B00084C5B0008785B0008DC
:10222000795B00087A5B00087C5B00087E5B000835
:102230007F5B0008805B0008825B0008845B00080D
:10224000865B0008885B00088A5B00088C5B0008DE
:10225000BC5B0008BD5B0008BE5B0008BF5B0008FC
:10226000C05B0008C25B0008C45B0008EC5B0008B0
:10227000ED5B0008EE5B0008EF5B0008F05B000818
:10228000F25B0008F45B0008F85B0008F95B0008EB
:10229000FA5B0008FB5B0008FC5B0008FD5B0008C4
:1022A000FE5B0008FF5B0008005C0008025C0008A1
:1022B000035C0008045C0008065C0008085C000879
:1022C000095C00080C5C0008405C0008415C0008E8
:1022D000425C0008445C0008465C00080021034A98
:1022E0001160034A11800180704700009C000020AB
:1022F000A00000202DE9F04F85B0044689469246A3
:102300009B46DDF838800020009000BF00BFFDF73D
:1023100083FF009000BFFEF72BFA00BFBAF1000F59
:102320000AD0BAF1010F0DD0BAF5004F05D06FF405
:102330000040504460B906E000BF206A40EA09004E
:10234000206216E000BF206A20EA0900206210E047
:1023500000BFFEF727FA00BF0098FDF761FF00BF3E
:1023600000BF45F62560A8F80000002005B0BDE8D4
:10237000F08F00BFC4F824B004F108000190019868
:10238000008968B900BFFEF70DFA00BF0098FDF79D
:1023900047FF00BF00BF0020A8F80000206AE5E763
:1023A00000BF71480078401C6F49087008460078EB
:1023B000012801D101F016F800BFFEF7F3F900BFC4
:1023C0000098FDF72DFF00BF00BF00BF0198076810
:1023D000BD6889E07868029095F8880000F00F00E9
:1023E00003900398012821D002282ED0042802D07F
:1023F000082836D10EE0206AD5F8801000EA0106E0
:10240000D5F88000B04204D15A463146284600F043
:10241000AFF863E0206AD5F8801000EA010626B123
:102420005A463146284600F0A3F857E0D5F8800018
:10243000216A20EA0106D5F88000B04204D15A464C
:102440003146284600F094F848E0D5F88000216A2B
:1024500020EA010626B15A463146284600F088F89F
:102460003CE000BF00BF00BFFDF7D6FE009000BFFC
:10247000FEF77EF900BF3C480078401E3A490870DC
:1024800008460078D0B900F0BBFF38480088002823
:102490000BDD00BFFEF786F900BF0098FDF7C0FE18
:1024A00000BF00BF00F070FF11E000BFFEF77AF937
:1024B00000BF0098FDF7B4FE00BF08E000BFFEF7C4
:1024C00071F900BF0098FDF7ABFE00BF00BF00BF71
:1024D00043F6FF20A8F80000002047E700BF029F56
:1024E0000FB1BD6800E00025002D7FF473AF00BF81
:1024F00000BF00BFFDF790FE009000BFFEF738F967
:1025000000BF19480078401E174908700846007837
:1025100008B900F075FF00BFFEF744F900BF00984E
:10252000FDF77EFE00BF00BF00BF0AF4004008B9FF
:10253000FEF754FC00BF00BFFDF76EFE009000BF29
:10254000FEF716F900BF206A049000BFFEF72AF9D3
:1025500000BF0098FDF764FE00BF00BF0020A8F890
:102560000000049802E70000CC000020900000204A
:1025700070B504460E46154634342665002060705A
:102580002070E560A078343C082816D2DFE800F01F
:10259000040508090706101100BF00BF00BF0DE0C9
:1025A00000BF204601F0DEFC002084F8360005E084
:1025B00000BF042084F8360000E000BF00BF2046C2
:1025C00000F069FC70BD0000002400BF1DE000BFEA
:1025D00000BFFDF721FE044600BFFEF7C9F800BFAB
:1025E0000A480068401C0949086009480068401C06
:1025F0000749086000BFFEF7D5F800BF2046FDF789
:102600000FFE00BF00BFFEF775FAE0E7780000207C
:10261000E400002010B58AB0044600200E4908608E
:102620000B2000210591CDE90704069108460B49CE
:1026300009680B4A12680B4B1B68CDE90132CDE9E2
:1026400003103F200023084A08A100900C48FEF721
:102650004FFE0AB010BD000078000020445A000868
:10266000405A00083C5A0008C925000875432F4FFE
:10267000532D4949492049646C65205461736B00AE
:10268000F02400202DE9F84F04460D4616461F465B
:10269000DDE90BABDDF82890DDF8348000200090F8
:1026A00000BF00BFFDF7B8FD009000BFFEF760F867
:1026B00000BF2C4800882C49098888423EDA294806
:1026C0000088401C274908802848008809888842DB
:1026D00003DA2448008825490880254800680460FA
:1026E00023480068856022480068C660204800686A
:1026F00007821F480068C0F814901D480068A0F8C1
:1027000018A01B480068C0F81CB019480068406851
:102710001749086001201749088117480860486078
:10272000002000F087FC1548007818B113480078A5
:10273000134908700020A8F8000008E0114800883C
:10274000401C1049088044F25360A8F8000000BF04
:10275000FEF728F800BF0098FDF762FD00BF00BF3C
:10276000BDE8F88F90000020505A00089200002029
:10277000880000208C260020B8250020B200002010
:10278000B4000020940000203EB55948006800685D
:10279000584A811A904279D00FDC574908440028E2
:1027A0003ED056490844A8B155490844002860D095
:1027B0005449084400286AD13FE05348084400289F
:1027C00050D052490844002862D05149084400289A
:1027D000F1D110E002A8464D00902D68EB69444D00
:1027E0002D682A8B424D2D686969414D2D68A86876
:1027F000FFF780FD7AE002A93D480068C0693C4DC2
:10280000CDE900012D682B8B394D2D682A8A384D72
:102810002D68E968364D2D68A86800F03BFC65E03E
:10282000334B1B68DA69324B1B68198B304B1B68C2
:10283000986802AB00F084FE58E002A92C480068BA
:10284000C0692B4DCDE900012D682B8B284D2D68DB
:102850002A8A274D2D68E968254D2D68A86801F062
:102860004BFA43E022490968886802A901F088FB15
:102870003CE01F4B1B68DA691D4B1B68198B1C4B16
:102880001B68986802AB01F045FC2FE007E02CE0E4
:1028900017490968886802A901F010FF26E01D4960
:1028A000097801EB41011C4A02EB810000F0C6FDF2
:1028B0000F48006802AB0021C269184801F02AFCE9
:1028C00017480068401E164908600846006858B955
:1028D000144800680860FDF7D9FF044602AB2246A1
:1028E0000021114801F016FC00E000BF00BF3EBD12
:1028F0008C0000205449434BADBAB2BE0DF90BFA1F
:10290000F2F8F7FF0006F6FF00F7FDF700FFEFFF14
:1029100003FE0FFEB40000208C260020542A002065
:10292000200100201C0100201C2B0020002700BFDC
:1029300056E0002652E000BF00BFFDF76DFC0746E1
:1029400000BFFDF715FF00BF2648008898B900209A
:10295000254908810860486000F07EFB00BFFDF754
:1029600021FF00BF3846FDF75BFC00BF00BFFEF74C
:1029700035FA012632E000BFFDF714FF00BF3846EC
:10298000FDF74EFC00BF00BFFDF780FF0546FFF7D7
:10299000FBFEFDF77BFF441B14480068A04201D2F8
:1029A0001248046000BF00BFFDF736FC074600BFB9
:1029B000FDF7DEFE00BF0E48006840680C49086065
:1029C00008480088401E0749088000BFFDF7EAFE5E
:1029D00000BF3846FDF724FC00BF00BF002EAAD080
:1029E000A7E70000900000208C260020980000201F
:1029F0008C000020F0B589B00546002031490880E0
:102A00003148006820B944F25260288009B0F0BD16
:102A10002E480088022803DA44F254602880F5E743
:102A200000202B49086028480468264620360027E5
:102A30000CE0284820600020A060E06020826061F7
:102A40002083666020342036781C87B21F480088B7
:102A50008742EEDB203C1C48066866601E48066024
:102A60001E48066000201E4908801E4908801E4836
:102A7000006818B944F255602880C7E71B48006811
:102A80001B490968884203D244F256602880BDE79A
:102A9000032000210591CDE9070506911348006840
:102AA000144A1268104B1B68CDE90301CDE90132CD
:102AB00000910B46104A11A11748FEF719FC00BF00
:102AC000A4E70000940000204C5A0008505A000867
:102AD000980000204E4F4E45880000208C000020BA
:102AE0009000002092000020585A0008605A000808
:102AF000985A00085C5A00082D29000875432F4F8A
:102B0000532D494949204953522051756575652017
:102B10005461736B00000000B82500200021034AB7
:102B20001160034A1180018070470000A40000205A
:102B3000A800002070B501461A4D2D681DB945F258
:102B40001E750D8070BD184D2D881DB945F21D757F
:102B50000D80F7E7134D28682A681032124D2D8832
:102B60006D1EACB2002308E00260002545600581BF
:102B7000C560103010325D1CABB2A342F4DB0025FF
:102B8000056045600581C560064D2D68074E3560BE
:102B9000054D2D88B5800025F58035810D8000BF5D
:102BA000D0E700007C5A0008745A000880260020F4
:102BB00010B5014648894B89002B17DD0A680C4B7C
:102BC0001B6813600A4C4B6823602346DB884C89E2
:102BD0001B1B074CE38023469B884C892344044CF1
:102BE000A38000234B818B810B604B6010BD0000E4
:102BF00080260020018100224281828102604260A1
:102C0000704700002DE9F0410D46DDE90674B0F88B
:102C10000AC0B0F80880C44505DB46F2935CA4F80E
:102C200000C0BDE8F081DFF8DCC0BCF804C0BCF136
:102C3000000F04D145F21D7CA4F800C0F1E7DFF8D5
:102C4000C4C0DCF80010DFF8BC80D1F800C0C8F8C0
:102C500000C0C446BCF804C0ACF1010CA8F804C024
:102C6000C446BCF806C00CF1010CA8F806C0C44666
:102C7000BCF808C0B8F80680C44507DADFF884C09D
:102C8000BCF806C0DFF87C80A8F808C0B0F80AC01D
:102C9000BCF1000F0AD1016041604FF0010CA0F8B7
:102CA0000AC04FF0000CC1F800C017E003F0100C90
:102CB000BCF1000F07D10668316001604FF0000CD5
:102CC000C1F800C004E0D0F804C0C1F800C0416001
:102CD000B0F80AC00CF1010CA0F80AC0B0F80CC0A2
:102CE000B0F80A80C44503DAB0F80AC0A0F80CC0F6
:102CF0004D600A81CF604FF0000CA4F800C000BF07
:102D00008FE70000802600200021034A1160034A5B
:102D10001180018070470000AC000020B00000204E
:102D20002DE9F04105460C4616461F461548006839
:102D300080F8346000201349096881F8350039466D
:102D40001048006800F00AFF6CB104F10808EC605C
:102D5000012229460B48006800F016F82946404633
:102D600000F066F806E0002006490968C8870549B2
:102D70000968086303480168204600F019F8BDE8B7
:102D8000F08100002401002010B5C28701630023F8
:102D90000AE000244C600C600C614C610C83CC6137
:102DA000886020315C1CA3B29342F2DB10BD0000AE
:102DB00030B548B14568C1F8C45000F10804226834
:102DC00093681D6AC56113E091F83450022D02D05A
:102DD000072D08D103E007A5C1F8C45007E007A5F7
:102DE000C1F8C45003E008A5C1F8C45000BF00BF3B
:102DF00030BD00005461736B205100005461736B4F
:102E00002053656D000000002000000030B507A5CC
:102E1000C1F8C45000F1080422681AB193681D6A11
:102E2000C56101E001A5C56130BD000020000000C2
:102E3000F0B58E6896F8375007893FB901270781AA
:102E400000274F600F600160416023E007897F1C0D
:102E50000781026806E0946894F83770AF4200DD9D
:102E600002E05268002AF6D100BF32B900274F6055
:102E700043680B60596041600CE017682FB911601E
:102E800000270F604A60016004E013680B604A602D
:102E900059601160F0BD2DE9F0410446256BE68FC5
:102EA0000AE0D5F80C8008F108072946384600F0FA
:102EB0000AF82035701E86B2002EF2DC0020E08772
:102EC0002063BDE8F08110B50489012C03D10024F2
:102ED0000460446011E00C6824B94A68002414605E
:102EE00002600AE04C6824B90B6800245C6043600F
:102EF00003E00B684A685A6013600489641E048109
:102F000000244C600C6010BD2DE9F84306460C46C9
:102F100017469846089D94F83600082850D2DFE8F6
:102F200000F00405080906072B2C00BF00BF00BFF6
:102F300047E000BF94F83400032807D143463A46DF
:102F400021463046009500F03FF803E0E765A4F81D
:102F50006080256436B12046FFF79DFF214630464C
:102F6000FFF754FF204600F0FDFF00203434A0702E
:102F7000607004F8340924E000BF94F8340003289A
:102F800007D143463A4621463046009500F01CF8EA
:102F900003E0E765A4F860802564204601F048FD61
:102FA00036B12046FFF777FF21463046FFF72EFF68
:102FB00004203434A0700020607004F8340900E06C
:102FC00000BF00BFBDE8F883F0B50446059E086B5E
:102FD000CD8F0AE0C768A74204D104614261038330
:102FE000C66104E020306F1EBDB2002DF2DC00BFD0
:102FF000F0BD000070B50025074C03E005F120008E
:10300000C5B2241D20680028F8D02068FDF70FF90C
:103010002844C5B2284670BD54000020002004E0BA
:103020000021034A42F82010401C0228F8D37047C0
:103030005400002030B5420900F01F030121C3F104
:103040001F04A140034C54F822400C43014D45F8A5
:10305000224030BD5400002030B5420900F01F036B
:103060000121C3F11F04A140034C54F822408C43BA
:10307000014D45F8224030BD540000200021034A94
:103080001160034A1180018070470000B8000020E1
:10309000BC0000202DE9F04F85B007468A469346D4
:1030A0001C460020029000BF00BF00BFFDF7B4F82F
:1030B000029000BFFDF75CFB00BF56480078401C43
:1030C0005449087008460078012801D100F08AF9B7
:1030D00000BFFDF767FB00BF0298FDF7A1F800BF36
:1030E00000BF00BF07F10806308900284CD104F06A
:1030F000100010B94FF0000801E04FF01008DDE9B2
:103100000E0143465A46CDE90001514607F1200021
:10311000FFF778FD00BF00BF00BFFDF77DF802900C
:1031200000BFFDF725FB00BF3A480078401E394933
:10313000087008460078D0B900F062F93648008877
:1031400000280BDD00BFFDF72DFB00BF0298FDF747
:1031500067F800BF00BF00F017F911E000BFFDF7EE
:1031600021FB00BF0298FDF75BF800BF08E000BF3D
:10317000FDF718FB00BF0298FDF752F800BF00BF33
:1031800000BF05B0BDE8F08F04F4007008B13589C8
:1031900000E00125D6F8009011E0D9F8080003906E
:1031A000D9F8040004900E985B46524600903846C9
:1031B0000399FFF7A9FEDDF81090681E85B2002D77
:1031C000EBD100BF00BF00BFFDF726F8029000BFA3
:1031D000FDF7CEFA00BF0F480078401E0D49087079
:1031E0000846007808B900F00BF900BFFDF7DAFADD
:1031F00000BF0298FDF714F800BF00BF00BF04F441
:10320000004008B9FDF7EAFD00210F98018000BFDA
:10321000B7E70000CC0000209000002000210AE069
:1032200001EB4102054B03EB8200002202810260A8
:1032300042604A1CD1B24029F2D370478C2600204C
:1032400010B5044694F83700FFF7F4FE94F8370001
:1032500005490978884203D1204600F027F802E0AA
:10326000204600F003F810BDB200002010B590F821
:10327000373003EB43030C4C04EB83010B893BB960
:1032800001230B810023C36003610860486009E0EB
:103290000B895B1C0B810B68C360002303610A6808
:1032A0001061086010BD00008C26002010B590F859
:1032B000373003EB43030B4C04EB83010B893BB921
:1032C00001230B810023C36003610860486008E0AC
:1032D0000B895B1C0B810023C3604A680261D060CC
:1032E000486010BD8C26002010B501460C8924B121
:1032F000012C03D0022C0CD101E000BF14E00868BF
:103300004A6802610024C4601461D0600A604860A9
:103310000AE008684A68C36800241C61C46002614E
:10332000D0600B60486000BF00BF10BD2DE9F041C8
:10333000054695F8370000EB4000124901EB800488
:103340002F69EE6887B946B900202081206060604F
:1033500095F83700FFF780FE0EE02089401E20819F
:1033600000203061266007E02089401E2081FE6039
:103370000EB9676000E0376100202861E860BDE8B1
:10338000F08100008C26002010B5002400BFFCF75F
:1033900043FF044600BF00200D4908700D480E4948
:1033A000086008460068D0F89000401C0968C1F821
:1033B00090000A480068401C084908604FF080509F
:1033C0000749086000BF2046FCF72AFF00BF10BD78
:1033D000B3000020B825002028010020F8000020BC
:1033E00004ED00E010B504480078012803D1FDF792
:1033F0004DFA0249086010BDCC000020C00000203A
:1034000010B50A48007880B9FDF740FA0849096804
:10341000441A08480068A04201D2064804600648E1
:103420000068A04201D20448046010BDCC00002016
:10343000C0000020C4000020C800002070B5054670
:10344000002635480078012800D070BD00BF00BFBD
:10345000FCF7E2FE064600BFFDF78AF900BF2C68C4
:103460004CB900BFFDF79EF900BF3046FCF7D8FE0F
:1034700000BF00BFE9E72948844209D100BFFDF73A
:1034800091F900BF3046FCF7CBFE00BF00BFDCE780
:10349000A06D10B1A06D401EA065A06D48B100BF29
:1034A000FDF780F900BF3046FCF7BAFE00BF00BF51
:1034B000CBE72889022809DA00BFFDF773F900BFBE
:1034C0003046FCF7ADFE00BF00BFBEE714480078F1
:1034D000002809DD00BFFDF765F900BF3046FCF7A5
:1034E0009FFE00BF00BFB0E72846FFF7FDFE2C6837
:1034F000606D18B90B480068A06501E0606DA065BB
:1035000000BFFDF74FF900BF3046FCF789FE00BF52
:1035100000BF00BF99E70000D4000020F024002085
:10352000CC000020D00000200021034A1160034A93
:103530001180018070470000D8000020DC000020CE
:103540002DE9FF5F0446884691461D460020019004
:1035500000BF00BFFCF760FE019000BFFDF708F957
:1035600000BF04F108073889002857D1042001283A
:1035700004D0022816D004283AD127E0206AFF2878
:103580000FD100BFFDF70EF900BF0198FCF748FE10
:1035900000BF00BF46F6C5502880002004B0BDE83B
:1035A000F09F26E04FF6FF71206A88420DD100BFE0
:1035B000FDF7F8F800BF0198FCF732FE00BF00BF2E
:1035C00046F6C55028800020E8E712E0206A401C3B
:1035D00068B900BFFDF7E6F800BF0198FCF720FED0
:1035E00000BF00BF46F6C55028800020D6E700E0A7
:1035F00000BF00BF206A401C2062D4F820A0C4F89D
:10360000249000BFFDF7CEF800BF0198FCF708FE3C
:1036100000BF00BF002028805046BFE700BF2D48F4
:103620000078401C2B49087008460078012801D119
:10363000FFF7D8FE00BFFDF7B5F800BF0198FCF713
:10364000EFFD00BF00BF00BF08F4007008B13E8965
:1036500000E00126D7F800B011E0DBF80800029086
:10366000DBF80400039000231A46CDF800902046B2
:103670000299FFF749FCDDF80CB0701E86B2002EEF
:10368000EBD1D4F820A000BF00BF00BFFCF7C4FD01
:10369000019000BFFDF76CF800BF0E480078401E97
:1036A0000C4908700846007808B9FFF7A9FE00BF6A
:1036B000FDF778F800BF0198FCF7B2FD00BF00BF2E
:1036C00000BF08F4004008B9FDF788FB00202880FF
:1036D000504663E7CC00002086B00020009000BF79
:1036E00006E0D9490968480001AA0021FEF732FB2B
:1036F000D64800780128F4D101A8FDF7BBFC0027CB
:10370000D3480068D0490968884205D9D048006884
:10371000CD490968B0FBF1F727B9CD4800680A2107
:10372000B0FBF1F78EE1FDF7B1F88246FDF70AF83C
:10373000C849086000BF00BFFCF76EFD009000BFE5
:10374000FDF716F800BFC4480068C44908600020AF
:10375000C149086000BFFDF725F800BF0098FCF7DD
:103760005FFD00BF00BFBE480068BC4909688842D1
:1037700048D9BB480068BB49884205D242F2107064
:1037800003900120029023E0B5480068B6498842C2
:1037900005D24FF47A7003900A20029018E0B048E6
:1037A0000068B249884203D26420039002900FE07F
:1037B000AB480068AE49884205D20A2003904FF416
:1037C0007A70029004E00120039042F2107002909F
:1037D000A34801680298B1FBF0F9A0490398096871
:1037E0004843B0FBF9F042F21071081AA149088071
:1037F000A14800880988884208DA9E4800889E49C6
:10380000088003E042F210709A490880FDF766FDD7
:10381000002500BF00BFFCF7FFFC009000BFFCF7D5
:10382000A7FF00BF9548046800BFFCF7BBFF00BFBF
:103830000098FCF7F5FC00BF00BF72E000BF00BFBE
:1038400000BFFCF7E9FC009000BFFCF791FF00BF50
:103850008B480078401C8A49087008460078012887
:1038600001D1FFF7BFFD00BFFCF79CFF00BF009830
:10387000FCF7D6FC00BF00BF00BF54F89C0F60608F
:10388000002044F89C0900BF00BF00BFFCF7C4FC47
:10389000009000BFFCF76CFF00BF79480078401E25
:1038A0007749087008460078D0B9FFF7A9FD754838
:1038B000008800280BDD00BFFCF774FF00BF0098F4
:1038C000FCF7AEFC00BF00BFFFF75EFD11E000BFDC
:1038D000FCF768FF00BF0098FCF7A2FC00BF08E0FF
:1038E00000BFFCF75FFF00BF0098FCF799FC00BF2A
:1038F00000BF00BFD4F8A000054400BF00BFFCF724
:103900008BFC009000BFFCF733FF00BFD4F8C04031
:1039100000BFFCF747FF00BF0098FCF781FC00BF29
:1039200000BF002C8AD145B34E48854205D242F2F1
:10393000107005904FF0010B1BE04B48854205D2FB
:103940004FF47A7005904FF00A0B12E04748854219
:1039500003D26420059083460BE04548854204D29B
:103960000A2005904FF47A7B03E00120059042F293
:10397000107BB5FBFBF0049003E0002005900120D4
:10398000049000BF00BFFCF747FC009000BFFCF7AD
:10399000EFFE00BF3948046800BFFCF703FF00BF1B
:1039A0000098FCF73DFC00BF00BF2FE0D4F8A0005A
:1039B000059948430499B0FBF1F086B242F21070C9
:1039C000864200D90646A4F88C60B4F88E00B04256
:1039D00001DAA4F88E6001AB04F1AC02111D20469F
:1039E000FEF764F800BF00BFFCF716FC009000BFB4
:1039F000FCF7BEFE00BFD4F8C04000BFFCF7D2FE0B
:103A000000BF0098FCF70CFC00BF00BF002CCDD11C
:103A10001D480078012805D100201B49087001A825
:103A2000FDF728FBFCF732FFA0EB0A0817480068F7
:103A3000404502D21548C0F8008001AA002138464E
:103A4000FEF788F96FE60000845A0008F0000020B5
:103A50009C5A000880000020E4000020EC000020B8
:103A6000E8000020801A060000093D00005A6202AA
:103A70000084D717E0000020E2000020FC000020B6
:103A8000CC00002090000020DE000020F400002088
:103A900010B58AB0044600201F4908601F4908601D
:103AA0001F4908601F4908701F4908701F480068B7
:103AB00020B946F62B6020800AB010BD1C48006873
:103AC0001C490968884203D246F62C602080F3E73F
:103AD000194800783F2803D346F62A602080EBE798
:103AE000032000210591CDE90704069108461049FD
:103AF0000968124A12680D4B1B68CDE90132CDE905
:103B000003100D48007800230D4A0EA100901248C2
:103B1000FDF7EEFB00BFCFE7E4000020EC00002043
:103B2000E8000020F0000020DE000020885A000895
:103B3000905A0008985A0008805A00088C5A0008C9
:103B4000D936000875432F4F532D494949205374E6
:103B50006174205461736B008C29002038B50446D1
:103B60000D4685B16B4602222946204600F082FEB2
:103B7000BDF8000018B9032084F8360006E00220E2
:103B800084F8360002E0022084F836002046FFF771
:103B9000CDFB38BD0021C0F8BC100949096819B92E
:103BA0000021C0F8C01007E005490968C0F8C0103E
:103BB00003490968C1F8BC0001490860704700006A
:103BC000FC000020D0F8BC20D0F8C0104AB90D4B42
:103BD000196011B10023C1F8BC300023C0F8C03017
:103BE0000FE029B90023C2F8C030C0F8BC3008E0AB
:103BF000C2F8C010C1F8BC200023C0F8C030C0F823
:103C0000BC307047FC0000200021044A1160044AC7
:103C10001180044A1160018070470000FC00002000
:103C200000010020F800002070B50446002020604C
:103C3000A0606060E06020616061A061E0612BA035
:103C4000206200206062A062E0622063E08720645E
:103C5000E065A4F86000002104F16400FEF7CAFFEB
:103C6000002044F8740F6060E060A0822061743C22
:103C7000002506E0002104F17C0040F82510681CB6
:103C8000C5B2002DF6D00020343420612067606773
:103C9000606084F85600E067A06720814FF0004024
:103CA00060610020A061E06120626062A4F85800B9
:103CB000A4F85A00E0652066FCF7E8FD0646666653
:103CC0000020A066C4F88000C4F8840020706070F2
:103CD000A0704020E0700020C4F88800C4F88C0078
:103CE00004A0C4F89000343C70BD00003F546173E0
:103CF0006B000000200000002DE9FC4704460F4641
:103D000090469946DDE90A654FF0000A00BF00BF02
:103D100000BFFCF781FA824600BFFCF729FD00BF17
:103D20008D480078401C8C490870084600780128AE
:103D300001D1FFF757FB00BFFCF734FD00BF504631
:103D4000FCF76EFA00BF00BF00BF0CB983480468DF
:103D50000020288094F8360008287CD2DFE800F0A4
:103D60000405484906074A4B00BF00BF00BF4B4649
:103D70004246394604F16400CDE90065FEF742FF92
:103D800000BF00BF00BFFCF747FA824600BFFCF748
:103D9000EFFC00BF70480078401E6F49087008466D
:103DA0000078D0B9FFF72CFB6D48008800280BDDA8
:103DB00000BFFCF7F7FC00BF5046FCF731FA00BF2C
:103DC00000BFFFF7E1FA11E000BFFCF7EBFC00BF1A
:103DD0005046FCF725FA00BF08E000BFFCF7E2FC04
:103DE00000BF5046FCF71CFA00BF00BF00BFAFE0A9
:103DF00000BF00BF00BF94F8340002282CD1434616
:103E00003A46214600200096FFF77EF800BF00BF2B
:103E100000BFFCF701FA824600BFFCF7A9FC00BF17
:103E20004D480078401E4C4908700846007808B993
:103E3000FFF7E6FA00BFFCF7B5FC00BF5046FCF701
:103E4000EFF900BF00BF00BF09F40040002843D1D4
:103E5000FCF7C4FF40E040E04B464246394604F1DF
:103E60006400CDE90065FEF7CDFE00BF00BF00BFD6
:103E7000FCF7D2F9824600BFFCF77AFC00BF364857
:103E80000078401E3449087008460078D0B9FFF722
:103E9000B7FA3348008800280BDD00BFFCF782FC2E
:103EA00000BF5046FCF7BCF900BF00BFFFF76CFA3B
:103EB00011E000BFFCF776FC00BF5046FCF7B0F9FC
:103EC00000BF08E000BFFCF76DFC00BF5046FCF7E8
:103ED000A7F900BF00BF00BF3AE000BF00BF00BFAE
:103EE000FCF79AF9824600BFFCF742FC00BF1A4873
:103EF0000078401E1849087008460078D0B9FFF7CE
:103F00007FFA1748008800280BDD00BFFCF74AFC49
:103F100000BF5046FCF784F900BF00BFFFF734FA3A
:103F200011E000BFFCF73EFC00BF5046FCF778F9FB
:103F300000BF08E000BFFCF735FC00BF5046FCF7AF
:103F40006FF900BF00BF00BF46F62D60288000BF9C
:103F500000BFBDE8FC870000CC0000202401002049
:103F60009000002010B50446204600F061FD94F852
:103F7000360000F0040010B92046FFF761F910BDCB
:103F800070B504460D46002600BF00BFFCF744F99B
:103F9000064600BFFCF7ECFB00BF0020288094F829
:103FA000360008287ED2DFE800F004050607145624
:103FB0006A8000BF00BF00BF00BFFCF7F3FB00BF7B
:103FC0003046FCF72DF900BF00BF47F253102880A0
:103FD0008CE000BF48480078401C474908700846FC
:103FE0000078012801D1FFF7FDF900BFFCF7DAFBEB
:103FF00000BF3046FCF714F900BF00BF00BF14F843
:104000008A0F401E207014F88A0928B9002084F80D
:1040100036002046FFF7A6FF00BF00BF00BFFCF739
:10402000FBF8064600BFFCF7A3FB00BF3248007850
:10403000401E314908700846007808B9FFF7E0F9DA
:1040400000BFFCF7AFFB00BF3046FCF7E9F800BF4C
:1040500000BF00BF4AE014F88A0F401E207014F819
:104060008A0910B9012084F8360000BFFCF79AFBDA
:1040700000BF3046FCF7D4F800BF00BF36E014F8AC
:104080008A0F401E207014F88A0910B9022084F8A3
:10409000360000BFFCF786FB00BF3046FCF7C0F8D7
:1040A00000BF00E015E000BF20E014F88A0F401EBA
:1040B000207014F88A0910B9032084F8360000BF74
:1040C000FCF770FB00BF3046FCF7AAF800BF00BF4A
:1040D0000CE000BFFCF766FB00BF3046FCF7A0F821
:1040E00000BF00BF46F62D60288070BD00BFFCF702
:1040F00075FE00BFF9E70000CC00002008B50448B9
:104100000068FDF79FFB69460020FDF747FA08BDF0
:10411000240100202DE9F8430446884617461D4631
:104120004FF0000900BF00BF00BFFCF775F88146E3
:1041300000BFFCF71DFB00BFFB480078401CFA499C
:10414000087008460078012801D1FFF74BF900BF3D
:10415000FCF728FB00BF4846FCF762F800BF00BF31
:1041600000BF0CB9F148046827640020288094F847
:10417000360008287AD2DFE800F00405FEFD0607C5
:10418000FCFB00BF00BF00BF0420012804D00228B0
:1041900043D004286BD184E0606CFF283CD100BF81
:1041A00000BF00BFFCF738F8814600BFFCF7E0FA1B
:1041B00000BFDD480078401EDB49087008460078E3
:1041C000D0B9FFF71DF9DA48008800280BDD00BFE1
:1041D000FCF7E8FA00BF4846FCF722F800BF00BF32
:1041E000FFF7D2F811E000BFFCF7DCFA00BF484649
:1041F000FCF716F800BF08E000BFFCF7D3FA00BFD9
:104200004846FCF70DF800BF00BF00BF46F6C5509A
:1042100028800020BDE8F88385E04FF6FF71606CD0
:1042200088423DD100BF00BF00BFFBF7F5FF8146CC
:1042300000BFFCF79DFA00BFBB480078401EBA499A
:10424000087008460078E0B9FFF7DAF8B848008847
:1042500000280DDD00BFFCF7A5FA00BF4846FBF7BC
:10426000DFFF00BF00BFFFF78FF813E0E2E159E086
:1042700000BFFCF797FA00BF4846FBF7D1FF00BF2D
:1042800008E000BFFCF78EFA00BF4846FBF7C8FF06
:1042900000BF00BF00BF46F6C55028800020B9E728
:1042A00041E0606C401CD8BB00BF00BF00BFFBF703
:1042B000B3FF814600BFFCF75BFA00BF9A48007865
:1042C000401E9949087008460078D0B9FFF798F861
:1042D0009748008800280BDD00BFFCF763FA00BF99
:1042E0004846FBF79DFF00BF00BFFFF74DF811E008
:1042F00000BFFCF757FA00BF4846FBF791FF00BF2D
:1043000008E000BFFCF74EFA00BF4846FBF788FF05
:1043100000BF00BF00BF46F6C5502880002079E7E7
:10432000FFE700E000BF00BF606C401C6064666C8B
:1043300000BF00BF00BFFBF76FFF814600BFFCF767
:1043400017FA00BF78480078401E77490870084681
:104350000078F8B9FFF754F875480088002810DD98
:1043600000BFFCF71FFA00BF4846FBF759FF03E008
:104370001EE01CE01AE018E000BF00BFFFF704F8E1
:1043800011E000BFFCF70EFA00BF4846FBF748FFFC
:1043900000BF08E000BFFCF705FA00BF4846FBF786
:1043A0003FFF00BF00BF00BF80E100BF00BF00BFF4
:1043B00094F8340007282CD100231A4621461846C9
:1043C0000097FEF7A1FD666C00BF00BF00BFFBF7C2
:1043D00023FF814600BFFCF7CBF900BF52480078AD
:1043E000401E514908700846007808B9FFF708F8E0
:1043F00000BFFCF7D7F900BF4846FBF711FF00BF2D
:1044000000BF00BF08F40040002801D1FCF7E6FC23
:104410000FE10420012804D0022842D0042872D1E0
:1044200089E0606CFF283BD100BF00BF00BFFBF7F5
:10443000F3FE814600BFFCF79BF900BF3A480078C5
:10444000401E3949087008460078D0B9FEF7D8FFF9
:104450003748008800280BDD00BFFCF7A3F900BF38
:104460004846FBF7DDFE00BF00BFFEF78DFF11E001
:1044700000BFFCF797F900BF4846FBF7D1FE00BF2D
:1044800008E000BFFCF78EF900BF4846FBF7C8FE06
:1044900000BF00BF00BF46F6C55028800020B9E627
:1044A0008BE04FF6FF71606C884243D100BF00BFC4
:1044B00000BFFBF7B1FE814600BFFCF759F900BF12
:1044C00019480078401E1849087008460078D8B985
:1044D000FEF796FF1648008800280BDD00BFFCF7AA
:1044E00061F900BF4846FBF79BFE00BF00BFFEF727
:1044F0004BFF12E000BFFCF755F900BF4846FBF741
:104500008FFE00BF09E057E000BFFCF74BF900BF8A
:104510004846FBF785FE00BF00BF00BF46F6C5500A
:104520002880002076E60000CC0000202401002036
:104530009000002041E0606C401CD8BB00BF00BF71
:1045400000BFFBF769FE814600BFFCF711F900BF11
:1045500058480078401E5749087008460078D0B97E
:10456000FEF74EFF5448008800280BDD00BFFCF723
:1045700019F900BF4846FBF753FE00BF00BFFEF726
:1045800003FF11E000BFFCF70DF900BF4846FBF741
:1045900047FE00BF08E000BFFCF704F900BF484633
:1045A000FBF73EFE00BF00BF00BF46F6C5502880A7
:1045B00000202FE6FFE700E000BF00BF606C401C5A
:1045C0006064666C00BF00BF00BFFBF725FE81463C
:1045D00000BFFCF7CDF800BF36480078401E3549D3
:1045E000087008460078D0B9FEF70AFF3248008804
:1045F00000280BDD00BFFCF7D5F800BF4846FBF7ED
:104600000FFE00BF00BFFEF7BFFE11E000BFFCF7CA
:10461000C9F800BF4846FBF703FE00BF08E000BF33
:10462000FCF7C0F800BF4846FBF7FAFD00BF00BF2B
:1046300000BF3BE000BF00BF00BFFBF7EDFD8146C0
:1046400000BFFCF795F800BF1A480078401E1949D2
:10465000087008460078D0B9FEF7D2FE16480088E8
:1046600000280BDD00BFFCF79DF800BF4846FBF7B4
:10467000D7FD00BF00BFFEF787FE11E000BFFCF7CB
:1046800091F800BF4846FBF7CBFD00BF08E000BF34
:10469000FCF788F800BF4846FBF7C2FD00BF00BF2B
:1046A00000BF46F62D602880002600BF00BF3046C0
:1046B000B0E50000CC0000209000002070B504465A
:1046C0000D46002600BF00BFFBF7A6FD064600BF53
:1046D000FCF74EF800BF0CB95A4804685948006806
:1046E000844210D15848007800280CDD00BFFCF748
:1046F00059F800BF3046FBF793FD00BF00BF46F6F8
:104700006350288070BD0020288094F83600082867
:1047100073D2DFE800F0044252627374757600BF12
:1047200049480078401C484908700846007801282C
:1047300001D1FEF757FE00BFFCF734F800BF30464A
:10474000FBF76EFD00BF00BF00BF042084F83600F9
:10475000012084F88A002046FEF7E8FD00BF00BF74
:1047600000BFFBF759FD064600BFFCF701F800BF8C
:1047700035480078401E344908700846007808B96A
:10478000FEF73EFE00BFFCF70DF800BF3046FBF71A
:1047900047FD00BF00BF00BF4FE0052084F8360092
:1047A000012084F88A0000BFFBF7FCFF00BF304601
:1047B000FBF736FD00BF00BF3FE0062084F836005F
:1047C000012084F88A0000BFFBF7ECFF00BF3046F1
:1047D000FBF726FD00BF00BF2FE0072084F836005E
:1047E000012084F88A0000BFFBF7DCFF00BF3046E1
:1047F000FBF716FD00BF00BF1FE011E000BF00BFC8
:1048000000BF94F88A00401C84F88A0000BFFBF7C0
:10481000C9FF00BF3046FBF703FD00BF00BF0CE03F
:1048200000BFFBF7BFFF00BF3046FBF7F9FC00BF3E
:1048300000BF46F62D60288064E700BFFCF7CEFA83
:1048400000BF5FE724010020CC000020002108E029
:10485000064A02EBC100002202608280C2804A1C2C
:1048600091B2034A12889142F2DB7047E0210020A6
:10487000B45A00082DE9F04F0C4616461D46042E8A
:104880001ED1DFF8A091D9F80090A4EB0909A9F195
:10489000010313F5803F0DD94FF00009C0F84C908B
:1048A000C0F85090C0F81C9047F27E29A5F80090FF
:1048B000BDE8F08FC46403F10109C0F850903FE0F7
:1048C00084B3082E25D1D0F8489009EB0407DFF80F
:1048D0005491D9F80090A7EB0909A9F10103A3426B
:1048E00001D2C76406E0DFF83C91D9F80090A144FA
:1048F000C0F84C90DFF82CA1D0F84C90DAF800A06A
:10490000A9EB0A09C0F85090D0F84C90C0F8489034
:1049100016E0DFF81091D9F80090A144C0F84C904F
:1049200004650DE0FFE74FF00009C0F84C90C0F8B7
:104930005090C0F81C9047F27E29A5F80090B7E788
:10494000DFF8E4A0BAF800A0D0F84C90B9FBFAFB6D
:104950000AFB1B991FFA89F8DFF8D09009EBC8020F
:10496000B2F80490B9F1000F0BD14FF00009C0F874
:104970001490C0F8189010604FF00109A2F804904C
:104980003EE0116834E0DFF89CA0D1F84C90DAF8F2
:1049900000A0A9EB0A09C1F85090D0F85090D1F8C6
:1049A00050A0D1450ED9D1F81490B9F1000F01D023
:1049B00049691DE04FF00009C0F814908161486119
:1049C000002115E0D1F81890B9F1000F07D14FF090
:1049D0000009C0F8189041618861106007E0D1F8C3
:1049E00018C0C0F818C04161CCF8140088610021DB
:1049F0000029C8D1B2F8049009F10109A2F8049085
:104A0000B2F80690B2F804A0D14503DAB2F80490E7
:104A1000A2F80690C2614FF00009A5F8009000BF0F
:104A200046E7000004010020B45A0008E0210020FD
:104A300010B5C269BAB1002404651468844205D176
:104A40004169116039B100248C6104E081694369D6
:104A50004B6103B19961002444618461C461C46401
:104A60009488641E948010BD002006E0054A02EB85
:104A7000C0010022CA80421C90B2034A12889042B0
:104A8000F4DB7047E0210020B45A00082DE9F05F04
:104A90004FF0000B00BF00BF00BFFBF7BDFB83461C
:104AA00000BFFBF765FE00BF7A480078401C7949DB
:104AB000087008460078012801D1FEF793FC00BF7A
:104AC000FBF770FE00BF5846FBF7AAFB00BF00BF14
:104AD00000BFFBF7DBFE05466F480068401C6E49CF
:104AE0000860084600686D490988B0FBF1F201FBD7
:104AF00012001FFA80FA6A4800EBCA08D8F8004092
:104B0000002782E0002C7FD0D4F8149094F836006F
:104B1000082875D2DFE800F00408051B063D0750A1
:104B200000BF00BF00BF6CE05B49E06C0968401A41
:104B300020655949E06C0968884206D1002084F854
:104B400036002046FFF70EFA00E0012759E05249EF
:104B5000E06C0968401A20654F49E06C096888429A
:104B600015D10020E065A4F86000FBF78FFE2064FB
:104B70002046FEF790F92046FFF7F4F90020343480
:104B8000A07003206070002004F8340900E00127C1
:104B900037E04149E06C0968401A20653E49E06C05
:104BA0000968884206D1042084F836002046FFF7C1
:104BB0003FFF00E0012724E03749E06C0968401A14
:104BC00020653549E06C0968884217D10020E0650E
:104BD000A4F86000FBF75AFE20642046FEF75BF95C
:104BE0002046FFF725FF04203434A07003206070B6
:104BF000002004F8340902E006E001E0012700E0AB
:104C000000BF00BF4C4600E00127002F3FF47AAF01
:104C1000FBF73CFE461B23480068B04201D2214806
:104C2000066000BF00BF00BFFBF7F6FA834600BF77
:104C3000FBF79EFD00BF17480078401E154908701D
:104C400008460078D0B9FEF7DBFB1748008800283B
:104C50000BDD00BFFBF7A6FD00BF5846FBF7E0FAEF
:104C600000BF00BFFEF790FB11E000BFFBF79AFD0D
:104C700000BF5846FBF7D4FA00BF08E000BFFBF7BF
:104C800091FD00BF5846FBF7CBFA00BF00BF00BF45
:104C9000BDE8F09FCC00002004010020B45A0008B9
:104CA000E021002008010020900000201CB500BF7A
:104CB0000EE001AB6A4600210846FCF7CFFDBDF8C7
:104CC000040028B903480078012801D1FFF7DEFE6F
:104CD000EFE700008400002010B58AB004460020F1
:104CE0001D4908601D490860FFF7B0FD1C480068B9
:104CF00020B947F2122020800AB010BD1948006880
:104D000019490968884203D247F213202080F3E74B
:104D1000164800783F2803D347F211202080EBE7A4
:104D20000B20002105910A46CDE9070406910D48A4
:104D300000680F4909680A4B1B68CDE90131CDE9CC
:104D400003020A48007800230A4A0BA100900F488A
:104D5000FCF7CEFA00BFCFE70401002008010020D5
:104D6000A45A0008AC5A0008985A0008A05A000833
:104D7000A85A0008AD4C000875432F4F532D4949E0
:104D800049205469636B205461736B00542A0020DE
:104D900070B58AB004460020314908603148006887
:104DA00040B1314800682F490968B0FBF1F02F4944
:104DB000086006E02C4800680A21B0FBF1F02B499E
:104DC00008602A4800682A490860002029490860CC
:104DD00029490860002508E0284800EBC5060020A6
:104DE000B080F0803060681C85B22548008885421C
:104DF000F2DB2448006820B947F2473020800AB02F
:104E000070BD2148006821490968884203D247F2F1
:104E100048302080F3E71E4800783F2803D347F24C
:104E200046302080EBE70B2000210591CDE90704F7
:104E30000691084614490968164A1268114B1B6806
:104E4000CDE90132CDE90310114800780023124A60
:104E500012A100901748FCF74BFA00BFCFE7000003
:104E60000C010020C05A00089C5A00081C010020B8
:104E700020010020180100201401002068240020D7
:104E8000D45A0008C45A0008CC5A0008985A00089E
:104E9000BC5A0008C85A0008AD4F000875432F4F90
:104EA000532D4949492054696D6572205461736BD3
:104EB000000000001C2B0020F0B50C46022680F8F4
:104EC0002A60012C05D12D4F466A3F683E44866119
:104ED0000CE0066A2EB9294F466A3F683E44866157
:104EE00004E0264F066A3F683E448661244F3F88AF
:104EF0008669B6FBF7FC07FB1C66B5B2214E06EBD4
:104F0000C502166836B900260661466110600126A2
:104F100096802CE0194F86693F68F61BC6611168C0
:104F200020E0164F8E693F68F61BCE61C669CF69D7
:104F3000BE4209D90E690EB1096913E00026066167
:104F40004161086100210DE04E692EB900264661DD
:104F500001614861106004E04B69436101611861BF
:104F6000486100210029DCD19688761C9680D6887D
:104F70009788BE4201DA9688D680F0BD18010020DD
:104F8000D45A000868240020002006E0054A02EBFD
:104F9000C0010022CA80421C90B2034A128890428B
:104FA000F4DB704768240020D45A00081CB500BF09
:104FB00053E001AB6A4600210846FCF74FFC01A80C
:104FC000FBF760FFFBF762FC064624480068401CC4
:104FD000224908600846006821490988B0FBF1F2BF
:104FE00001FB12001FFA80FA1E4800EBCA08D8F82D
:104FF00000404FF0000B21E0F4B1D4F810901749B5
:10500000A0690968884214D1204600F02FF8208D4D
:10501000022804D101212046FFF74EFF02E00320C1
:1050200084F82A00A56815B12046E168A8474C46D7
:1050300004E04FF0010B01E04FF0010BBBF1000F5A
:10504000DAD0FBF723FC871B01A8FBF78FFF06488C
:105050000068B84201D204480760AAE7180100209E
:10506000D45A00086824002014010020F0B5114E25
:1050700036888569B5FBF6F706FB1755ACB20E4DC1
:1050800005EBC4021568854205D10169116039B18B
:1050900000254D6104E0416903690B6103B1596169
:1050A000012580F82A5000250561456195886D1E0F
:1050B0009580F0BDD45A00086824002029B1064A22
:1050C00092690243044B9A6104E0034A9269824365
:1050D000014B9A61704700000010024030B500217A
:1050E0000022002400232D4D6D6805F00C0121B134
:1050F000042905D0082923D105E0294D056022E0C7
:10510000274D05601FE0254D6D6805F47012234D95
:105110006D6805F48034022505EB92421CB9214DDF
:10512000554305600BE01D4D6D6805F400351DB15C
:105130001C4D5543056002E0194D5543056002E0E2
:10514000174D056000BF00BF144D6D6805F0F001FC
:105150000909154D6B5C0568DD4045600F4D6D68B4
:1051600005F4E061090A104D6B5C4568DD4085601F
:105170000A4D6D6805F46051C90A0B4D6B5C4568BA
:10518000DD40C560054D6D6805F44041890B074D54
:105190006B5CC568B5FBF3F5056130BD00100240DE
:1051A00000127A0000093D001400002024000020B5
:1051B000704710B500F002F810BD00000CB50020DB
:1051C000019000903348006840F480303149086015
:1051D00000BF3048006800F4003000900198401C87
:1051E0000190009818B90198B0F5A06FF1D1294845
:1051F000006800F4003010B10120009001E00020B0
:1052000000900098012843D12348006840F0100026
:10521000214908600846006820F00300086008463D
:10522000006840F0020008601A4840681949486068
:105230000846406848600846406840F4806048601E
:105240000846406820F47C1048600846406840F4F6
:10525000E81048600846006840F08070086000BFB1
:105260000C48006800F000700028F9D00948406838
:1052700020F00300074948600846406840F00200FB
:10528000486000BF0348406800F00C000828F9D1CE
:105290000CBD00000010024000200240042808D18C
:1052A0004FF0E021096941F004014FF0E022116163
:1052B00007E04FF0E021096921F004014FF0E022FE
:1052C0001161704710B505480078012805D1FBF73A
:1052D000FDFCFCF7FDFEFBF70FFD10BD8400002078
:1052E00010B51348006840F00100114908600846F5
:1052F0004068104908400E494860084600680E4959
:1053000008400B4908600846006820F480200860C7
:105310000846406820F4FE0048604FF41F00886093
:10532000FFF747FF4FF000600449086010BD000020
:10533000001002400000FFF8FFFFF6FE08ED00E05D
:1053400010B5FBF7C3FC40F225511E4800F04CF8A5
:1053500010B31C4800F004F9C4B21B48008800F4E4
:105360000040C8B91848008800F4804060B10A2C99
:1053700003D000201449088020E01348008840F43E
:1053800000401149088019E00D2C06D10E48008814
:1053900040F480400C49088010E00B480088C0F3BE
:1053A0000D000A490C5408480088401C0649088032
:1053B00008460088C72801DD00200880FBF79CFC18
:1053C00010BD00000038014030000020880F002090
:1053D00021B1828942F40052828104E082894DF633
:1053E000FF731A408281704770B502460024002383
:1053F0000025002040F66A16B14200D100BFC1F37B
:10540000421501F01F03012606FA03F3012D02D114
:105410009689334006E0022D02D1168A334001E01E
:10542000968A33400C12012606FA04F4168834409A
:1054300013B10CB1012000E0002070BDF0B50346AF
:10544000002400260025002040F66A17B94200D14A
:1054500000BF1846C1F3421401F01F06012707FAE6
:1054600006F5012C01D10C3004E0022C01D11030E2
:1054700000E014301AB107682F43076002E00768A4
:10548000AF430760F0BD00002DE9F04786B0054648
:105490000E460024A24600BFA1460027B08900B1F5
:1054A00000BF2F462C8A4CF6FF700440F08804435E
:1054B0002C82AC894EF6F3100440B0883189084341
:1054C000718908430443AC81AC8A4FF6FF40044025
:1054D000B0890443AC8201A8FFF700FE1F48874251
:1054E00002D1DDF810A001E0DDF80CA0A88900F4DD
:1054F000004040B10AEBCA0000EB0A1031684900D5
:10550000B0FBF1F807E00AEBCA0000EB0A103168C3
:105510008900B0FBF1F86420B8FBF0F00401200929
:10552000642101FB1089A88900F4004040B13220B9
:1055300000EBC900B0FBF1F000F00700044308E005
:10554000322000EB09106421B0FBF1F000F00F00F5
:1055500004432C8106B0BDE8F0870000003801400C
:1055600001468888C0F30800704700BFFEE7014687
:1055700000BF704710B56FF00400FFF78FFE1448AE
:1055800000681449B0FBF1F0134908701048006836
:105590001049B0FBF1F411480068C910B1FBF0F0FC
:1055A00044430E4800684FF47A71B1FBF0F00C49A7
:1055B00008804FF0E020006940F002004FF0E02149
:1055C000086108464461006940F00100086110BDAF
:1055D0000000002000127A00280000209C5A0008D9
:1055E0002A00002000BF054A128802F04002002A6B
:1055F000F9D0C2B2014B1B1D1A8070470038014020
:105600000EB5002400BF30E000201849086002A851
:1056100000214FF496730A46CDE900100846FCF7C6
:1056200041FC01201249C1F8B00102A800214FF449
:105630002F730A46CDE900100846FCF733FC142C02
:1056400008D102A90B48FCF703FB0BA0FAF7FCFDFD
:10565000641C06E0282C03D102A90648FCF7AEF82A
:10566000641C21460BA0FAF7EFFDCDE7B081214283
:1056700000802142C00C0020204C45443120546160
:10568000736B20686173206265656E2070656E645F
:10569000210D0A0054686973206973206C656430B9
:1056A000207461736B2C20636E74203D2025640D83
:1056B0000A0000000EB5002400BF0DE0641C214666
:1056C00006A0FAF7C1FD02A800210B460122CDE990
:1056D00000100846FCF7E6FBF0E700005468697329
:1056E000206973206C656431207461736B2C2063B6
:1056F0006E74203D2025640D0A0000008AB000244D
:10570000FFF738FF4FF4A060FBF7E8F94FF4E13002
:1057100000F044F9FBF750F909A8FBF7F5F900BFD1
:1057200000BF00BFFAF778FD044600BFFBF720F882
:1057300000BF34480078401C3249087008460078A1
:10574000012801D1FDF74EFE00BFFBF72BF800BF8B
:105750002046FAF765FD00BF00BF00BF09A803217E
:1057600000220592CDE90621089010464FF4007101
:105770003322254BCDE90132CDE90310032000236C
:10578000224A23A100902548FBF7B2FD00BF00BFCD
:1057900000BFFAF741FD044600BFFAF7E9FF00BF7A
:1057A00018480078401E1749087008460078D0B99C
:1057B000FDF726FE1A48008800280BDD00BFFAF727
:1057C000F1FF00BF2046FAF72BFD00BF00BFFDF739
:1057D000DBFD11E000BFFAF7E5FF00BF2046FAF756
:1057E0001FFD00BF08E000BFFAF7DCFF00BF204646
:1057F000FAF716FD00BF00BF00BF09A8FBF706FCC3
:1058000000BFFEE7CC000020F8010020255800086A
:105810007374617274207461736B00003001002036
:105820009000002030B58BB00446002500BFFAF789
:1058300005FF0AA8FBF7D2FCFAF76EFF0AAA0121BE
:105840000846FBF75DFBFAF7A3FE00BF00BF00BFF1
:10585000FAF7E2FC054600BFFAF78AFF00BF4048AE
:105860000078401C3E49087008460078012801D1A4
:10587000FDF7B8FD00BFFAF795FF00BF2846FAF71D
:10588000CFFC00BF00BF00BF0AA803210022059281
:10589000CDE906210890104680210C22314BCDE93C
:1058A0000132CDE90310042000232F4A2FA10090DC
:1058B0003148FBF71DFD0AA8032100220592CDE91E
:1058C00006210890104680210C222C4BCDE9013294
:1058D000CDE9031005200023294A2AA100902C4875
:1058E000FBF706FD0AA92B48FEF7E8FE00BF00BF44
:1058F00000BFFAF791FC054600BFFAF739FF00BF79
:1059000017480078401E1649087008460078D0B93C
:10591000FDF776FD2048008800280BDD00BFFAF770
:1059200041FF00BF2846FAF77BFC00BF00BFFDF730
:105930002BFD11E000BFFAF735FF00BF2846FAF74C
:105940006FFC00BF08E000BFFAF72CFF00BF28463D
:10595000FAF766FC00BF00BF00BF0BB030BD00000F
:10596000CC000020C00A0020015600086C6564309D
:10597000207461736B000000F8090020880D00207E
:10598000B55600086C656431207461736B000000CB
:10599000C00C0020300100209000002010B586B01F
:1059A0000446012144F20400FFF788FB4FF4007025
:1059B000ADF8140003208DF8160018208DF817009C
:1059C00005A91C48FAF769FF4FF48060ADF8140090
:1059D00004208DF8170005A91648FAF75EFF252068
:1059E0008DF8000003208DF801008DF802000120E1
:1059F0008DF803006846FBF739F801940020ADF8F4
:105A00000800ADF80A00ADF80C00ADF810000C204D
:105A1000ADF80E0001A90848FFF736FD012240F25B
:105A200025510548FFF70AFD01210348FFF7D0FC87
:105A300006B010BD00080140003801406010002091
:105A40000C00000080000000000200006012002036
:105A50000A00000040010000A01300200C0000001C
:105A60008000000000020000A0150020800000005F
:105A7000000200006400000040060000A0170020A3
:105A80003E0000000A000000E01D00200C000000A5
:105A9000800000000002000040000000C80000007C
:105AA00001000000E01F00200C000000800000004A
:105AB0000002000011000000880000000200000049
:105AC00064000000682200200C000000800000003C
:105AD0000002000011000000880000009014000087
