:020000040800F2
:1000000068350020D1010008050A0008F70800083B
:100010008D090008650500082F5800080000000041
:1000200000000000000000000000000075540008FF
:10003000C507000800000000F30400088955000807
:10004000EB010008EB010008EB010008EB010008E0
:10005000EB010008EB010008EB010008EB010008D0
:10006000EB010008EB010008EB010008EB010008C0
:10007000EB010008EB010008EB010008EB010008B0
:10008000EB010008EB010008EB010008EB010008A0
:10009000EB010008EB010008EB010008EB01000890
:1000A000EB010008EB010008EB010008EB01000880
:1000B000EB010008EB010008EB010008EB01000870
:1000C000EB010008EB010008EB010008EB01000860
:1000D000EB01000805560008EB010008EB010008E1
:1000E000EB010008EB010008EB01000800F002F84A
:1000F00000F05FF80AA090E8000C82448344AAF163
:100100000107DA4501D100F054F8AFF2090EBAE860
:100110000F0013F0010F18BFFB1A43F0010318473B
:10012000AC5F0000CC5F00000A444FF0000C10F8F8
:10013000013B13F0070408BF10F8014B1D1108BF65
:1001400010F8015B641E05D010F8016B641E01F805
:10015000016BF9D113F0080F1EBF10F8014BAD1C55
:100160000C1B09D16D1E58BF01F801CBFAD505E073
:1001700014F8016B01F8016B6D1EF9D59142D6D3CD
:10018000704700000023002400250026103A28BFF5
:1001900078C1FBD8520728BF30C148BF0B607047F9
:1001A000642900F09180002070471FB51FBD10B575
:1001B00010BD00F051F91146FFF7F7FF05F094FC70
:1001C00000F06FF903B4FFF7F2FF03BC05F058FB32
:1001D0000948804709480047FEE7FEE7FEE7FEE7DB
:1001E000FEE7FEE7FEE7FEE7FEE7FEE70448054917
:1001F000054A064B70470000A5550008ED000008B1
:10020000682F002068350020683100206831002008
:1002100072B6704762B67047EFF3108072B67047DF
:1002200080F31088704730BF704720BF7047B0FA26
:1002300080F0704790FAA0F0B0FA80F0704790FA22
:10024000A0F07047704700000FB4044910B503AA2E
:10025000029800F0D3F810BC5DF814FB30000020C9
:100260002DE9F0410E460446002020622046E16858
:10027000884730B3252805D0D4E901219047206A6A
:10028000401CF2E7E168204600278847050018D0A7
:10029000A5F14100192802D820354FF400673246F5
:1002A000294620462760FFF77BFF40B1012804D094
:1002B000F61D26F007060836D8E7361DD6E728468D
:1002C000DAE7206ABDE8F0812DE9F0410646002416
:1002D00010687529314616A510D0AFF300800028AC
:1002E00002DA404213A507E031688A0701D512A55A
:1002F00002E0490704D511A5012401E0AFF3008015
:1003000000210A2206F1240709E0B0FBF2FCB0FB51
:10031000F2F302FB1C00303078541846491C0028C8
:10032000F3D123462A463046BDE8F04100F00CB830
:10033000000000002D0000002B0000002000000045
:1003400070477047704770472DE9F0470D46994652
:100350009246044600F124080168880604D5E06945
:1003600021F01001216000E00120A84201DD471BBF
:1003700000E00027A1697A1902EB0900081AA061C0
:100380002078C00602D42046AFF30080002608E0A3
:10039000D4E901211AF806009047206A401C761C17
:1003A00020624E45F4DB2078C0060AD52046AFF324
:1003B000008006E0D4E9012130209047206A401CEB
:1003C0002062381EA7F10107F4DC07E0D4E901211F
:1003D00018F805009047206A401C2062281EA5F1ED
:1003E0000105F3DC2046AFF300802078000602D53B
:1003F0000220BDE8F0870120FBE70000074B70B545
:100400000D467B4400F011F80446284600F020F821
:1004100010B14FF0FF3070BD204670BDC3550000D5
:1004200001694A1C02610878704700B58FB0CDE9B8
:1004300001310021059105497944CDE903101146A8
:100440006846FFF70DFF0FB000BD0000E5FFFFFF9E
:10045000007B00F080007047754600F02BF8AE4638
:1004600005006946534620F00700854618B020B5C0
:10047000FFF7BCFEBDE820404FF000064FF000073C
:100480004FF000084FF0000B21F00701AC46ACE83C
:10049000C009ACE8C009ACE8C009ACE8C0098D46A9
:1004A000704710B50446AFF300802046BDE8104009
:1004B000FFF788BE00487047082F00201D484FF600
:1004C000FF710170002080F309881B48016881F3E7
:1004D00008881A484FF08051016062B6FEE717485D
:1004E0004FF080510160704714484FF08051016017
:1004F000704772B6EFF3098028B1203880E8F00F1A
:100500000F490968086000B50E4880475DF804EBA4
:100510000D480E490A78027009480D490A680260C0
:10052000106890E8F00F203080F309884EF0040E38
:1005300062B6704722ED00E05400002004ED00E0B8
:1005400028010020311D0008B6000020B70000205F
:100550002C01002000B585B0684604F021FF019809
:1005600005B000BD00BFFEE710B500F0FBF800F0DD
:1005700003F800F0F3F810BD70B50026002018490C
:100580000880184908801849086018490860184907
:1005900008601849086018490860002400BFFFF788
:1005A0003BFE064600BF00250BE000201049086016
:1005B00000F074F800F08CF80D4800680444681CE2
:1005C00085B2002DF1D00C48046000200849086075
:1005D0000849086000BF3046FFF722FE00BF70BD2B
:1005E0003C0000203E00002040000020440000208D
:1005F0004C00002050000020480000200146084622
:10060000044A1268904203D9024A1268801A00E034
:10061000002070474800002070B5002500BFFFF79C
:10062000FBFD054600BF0648046800BF2846FFF7EB
:10063000F7FD00BF2046FFF7E1FF0646304670BDDC
:100640004C00002070B50025FFF7E6FF044600BF10
:10065000FFF7E2FD054600BF00200449086000BF27
:100660002846FFF7DDFD00BF204670BD4C0000208E
:1006700070B5002500BFFFF7CFFD054600BF064857
:10068000046800BF2846FFF7CBFD00BF2046FFF7F8
:10069000B5FF0646304670BD5000002010B5094831
:1006A0000088401C074908800748008818B900F0F6
:1006B00083F80649086004480088401C0249088005
:1006C00010BD00003C0000203E0000204000002043
:1006D00010B50F480088401E0D4908800846008864
:1006E000A0B900F069F80B490860084600680A499B
:1006F0000968441A09480068A04201D2074804600A
:1007000007480068A04201D20548046010BD0000FF
:100710003E00002044000020400000204C0000204B
:100720005000002010B5002400BF00BFFFF774FD8B
:10073000044600BFFFF7B2FF00BF1021064800F0DB
:1007400027F900BFFFF7C4FF00BF2046FFF768FD91
:1007500000BF00BF10BD00007413002010B5FFF7EC
:10076000E1FF10BD10B500200249086000F00AF852
:1007700010BD0000380000200149086070470000EB
:100780003800002010B5FFF7E5FE04460848006871
:1007900040F080700649086000200649486008461D
:1007A000006840F0010008602046FFF7E5FF10BD3B
:1007B000FCED00E0001000E00149486870470000CF
:1007C000001000E070472DE9F041024600250026A8
:1007D000002000230024002791F803C00CF00F052F
:1007E00091F803C00CF0100CBCF1000F03D091F88D
:1007F00002C04CEA050591F800C0BCF1000F31D0F1
:10080000146800202BE04FF0010C0CFA00F3B1F853
:1008100000C00CEA03069E4220D183004FF00F0C6B
:100820000CFA03F7BC4305FA03FC4CEA040491F804
:1008300003C0BCF1280F06D14FF0010C0CFA00FCEC
:10084000C2F814C00AE091F803C0BCF1480F05D10A
:100850004FF0010C0CFA00FCC2F810C0401C082834
:10086000D1D31460B1F800C0BCF1FF0F34DD54687F
:1008700000202EE000F1080C4FF0010808FA0CF3FC
:10088000B1F800C00CEA03069E4221D183004FF06C
:100890000F0C0CFA03F7BC4305FA03FC4CEA040402
:1008A00091F803C0BCF1280F05D100F1080C08FA3B
:1008B0000CF8C2F8148091F803C0BCF1480F07D1BE
:1008C00000F1080C4FF0010808FA0CF8C2F810808B
:1008D000401C0828CED35460BDE8F08102460020B9
:1008E00093680B400BB1012000E00020704741618C
:1008F00070470161704700BFFEE7000010B5044675
:1009000014B10120114908701048007898B14FF4D3
:1009100080710F48FFF7E2FF68B90A2004F0ECFF8E
:1009200000200A4908704FF480710948FFF7D6FF8C
:1009300050B9012010BD4FF480710548FFF7CEFF7C
:10094000012801D1014908700020F3E7360000209A
:10095000000C014008B50121082004F011FD4FF4FE
:100960008050ADF8000010208DF8030003208DF8B2
:10097000020069460448FFF726FF4FF48051024801
:10098000FFF7B7FF08BD0000000C014000BFFEE705
:1009900030B505460C4622460021284600F001F8F5
:1009A00030BD2DE9F04103460C4617460FB9BDE8AE
:1009B000F08103B9FBE70025002202E02D02254368
:1009C000521C042AFAD3384603F0030C1946BCF132
:1009D000000F08D0624603E001F8014B401E521C94
:1009E00008B1042AF8D30E4601E020C6001F0428EF
:1009F000FBD2314602E001F8014B401E0028FAD13B
:100A000000BFD4E77047000070B5002100230F221B
:100A1000C47804B3154C246804F4E064C4F5E064BD
:100A2000210AC1F10403CA40447804FA03F184782E
:100A30001440214309010E4C0678A155047804F0B6
:100A40001F050124AC4005786D11AD0005F1E025CE
:100A5000C5F8004109E0047804F01F050124AC400A
:100A6000044D0678761145F8264070BD0CED00E087
:100A700000E400E080E100E002490143024A116025
:100A8000704700000000FA050CED00E07047000020
:100A900010B50348006810B101480068804710BDD8
:100AA0006C00002070B5044600F0C2F800204849F0
:100AB0000870484908704849087048490860484922
:100AC0000860484908704849087048490870484912
:100AD0000860484908604849086048490870484823
:100AE00000680A21B0FBF1F04649086046480068FA
:100AF00058B14648056845B14348066803E0761E8C
:100B0000002028602D1D002EF9D1002040490860EA
:100B10004049086040490860404908604049086011
:100B200040490860404908604049087002F0ACFB49
:100B300002F0AAFC204601F003FD208800B170BD40
:100B4000204602F01DF9208800B1F8E7204602F0A7
:100B500023F9208800B1F2E7204602F007FA208846
:100B600000B1ECE7204602F0BFFB208800B1E6E7C9
:100B7000204602F027FE208800B1E0E7204603F07F
:100B800091F9208800B1DAE7204602F065F8208864
:100B900000B1D4E7204601F06FFE208800B1CEE717
:100BA000204604F0E7F9208800B1C8E7204603F0AA
:100BB000BDF8208800B1C2E7204604F04BFA208837
:100BC00000B1BCE701F0E2FBFFF760FF00BFB6E752
:100BD0008000002088000020D00000202801002094
:100BE0002C010020B6000020B7000020B800002033
:100BF000C4000020C8000020CC000020D800002045
:100C00001C5F0008D4000020EC5E0008E85E0008CD
:100C10006000002064000020680000206C000020BC
:100C200070000020740000207800002006010020E1
:100C30000A4A1168002002E0002204C1401C084A50
:100C400012689042F8D3054A1268054B1B6802EB04
:100C50008302121F034B1A6070470000E85E000811
:100C6000EC5E00085400002008480078012800D0FD
:100C7000704707480078FA2800DBF9E70448007855
:100C8000401C0349087000BFF2E700008800002004
:100C90008000002010B500242E480078012800D0E4
:100CA00010BD00BFFFF7B8FA044600BF2A4800781D
:100CB00028B900BF2046FFF7B3FA00BFF0E7264887
:100CC0000078401E2449087008460078002805DD99
:100CD00000BF2046FFF7A4FA00BFE1E71F480078F5
:100CE000002805DD00BF2046FFF79AFA00BFD7E7CE
:100CF00002F0B6FA1A4908700846007800EB400086
:100D0000184951F82000184908600846006817493A
:100D10000968884205D100BF2046FFF781FA00BF6D
:100D2000BEE711480068D0F89000401C0E490968E1
:100D3000C1F890000E480068401C0D4908604FF053
:100D400080500C49086000BF2046FFF769FA00BFD9
:100D500000BFA5E78800002080000020D000002010
:100D6000B7000020B02900202C010020280100201D
:100D7000FC00002004ED00E010B5002420480078BD
:100D8000002800DD10BD1F480078002800DDF9E7CD
:100D900000BFFFF741FA044600BF02F061FA1A49AA
:100DA00008700846007800EB4000184951F8200010
:100DB000174908600846006816490968884205D145
:100DC00000BF2046FFF72CFA00BFDBE710480068A1
:100DD000D0F89000401C0E490968C1F890000E48F8
:100DE0000068401C0C4908604FF080500B490860B7
:100DF00000BF2046FFF714FA00BF00BFC2E70000A3
:100E000080000020D0000020B7000020B029002082
:100E10002C01002028010020FC00002004ED00E04F
:100E200070B5044600251A480078002803DD46F610
:100E30006250208070BD17480078012803D045F625
:100E400089602080F6E714480078FA2803DB45F231
:100E500009202080EEE700BF00BFFFF7DDF905465F
:100E600000BFFFF71BFC00BF0B480078401C0A497D
:100E7000087002F0EDFB00BFFFF72AFC00BF284618
:100E8000FFF7CEF900BF00BF0020208000BFD1E7F0
:100E90008000002088000020D00000202DE9F041D3
:100EA00005460C461646002700BF00BFFFF7B4F901
:100EB000074600BFFFF7F2FB00BF012D03D0002063
:100EC0000E49087002E001200C49087014B10C486A
:100ED000046006E00B4800680A21B0FBF1F0084905
:100EE000086000BFFFF7F4FB00BF3846FFF798F932
:100EF00000BF00BF00203080BDE8F081D800002096
:100F0000D40000201C5F000870B50446002523486B
:100F10000078002803DD46F66550208070BD20482B
:100F20000078012803D045F689602080F6E71D4847
:100F3000007818B946F664502080EFE700BF00BF84
:100F4000FFF76AF9054600BFFFF7A8FB00BF154889
:100F50000078401E134908700846007800280CDD10
:100F600000BFFFF7B5FB00BF2846FFF759F900BFE8
:100F700000BF46F663502080D0E702F077FB00BF49
:100F8000FFF7A6FB00BF2846FFF74AF900BF00BFE6
:100F9000FFF7F2FE0020208000BFBFE780000020A6
:100FA00088000020D00000202DE9F04104460E46C4
:100FB00017461D464FF0000830480078002804DD31
:100FC00042F6E1602880BDE8F0811CB945F6C350C7
:100FD0002880F8E700BF00BF00BFFFF71DF980467B
:100FE00000BFFFF75BFB00BF25480078401C244989
:100FF000087008460078012801D102F029FB00BFE3
:10100000FFF766FB00BF4046FFF70AF900BF00BFCD
:1010100000BF1C482060276200206062666004F107
:10102000080002F037F8204602F0B4FB16480088AA
:10103000401C1549088000BF00BF00BFFFF7ECF857
:10104000804600BFFFF72AFB00BF0D480078401E16
:101050000B4908700846007808B902F007FB00BF8A
:10106000FFF736FB00BF4046FFF7DAF800BF00BFCE
:1010700000BF0020288000BFA5E7000080000020FE
:10108000D000002053454D41E000002010B504463B
:1010900012480078E8B902F0E3F8114908700846F0
:1010A0000078104908700E48007800EB40000E49A7
:1010B00051F820000D490860084600680C49086096
:1010C000012006490870FFF7F9F943F699202080BE
:1010D00002E045F68A60208010BD000088000020F4
:1010E000B7000020B6000020B02900202C0100200D
:1010F000280100202DE9F04107464FF0000800BF0D
:1011000000BFFFF789F8804600BFFFF7C7FA00BFAE
:1011100000204749086047490880474908804749F7
:1011200008604749086047490860474908604749DF
:1011300008604749088100BFFFF7CAFA00BF404670
:10114000FFF76EF800BF00BF00BF00BFFFF764F8F5
:10115000804600BFFFF7A2FA00BF3E48046800BF08
:10116000FFF7B6FA00BF4046FFF75AF800BF00BFCE
:1011700026E000BF00BFFFF74FF8804600BFFFF733
:101180008DFA00BF00207834E06320642060206383
:10119000A061A082E0826062A062FFF70DFB206286
:1011A000783C04F164060020B081D4F8C04000BF50
:1011B000FFF78EFA00BF4046FFF732F800BF00BFCE
:1011C000002CD6D100BF00BFFFF726F8804600BF35
:1011D000FFF764FA00BF2048056800BFFFF778FA00
:1011E00000BF4046FFF71CF800BF00BF16E000BF7D
:1011F00000BFFFF711F8804600BFFFF74FFA00BFAE
:1012000005F120060020B081AD6900BFFFF760FA4C
:1012100000BF4046FFF704F800BF00BF002DE6D135
:1012200003F070FD04F012F800203880BDE8F08172
:101230009C00002096000020E6000020F80000201E
:101240000C0100201801002084000020C8000020AC
:10125000A429002000010020BC000020F8B50446AD
:1012600000266946364800F033FDBDF8000018B18D
:10127000BDF800002080F8BD6A460021022000F081
:10128000A9FDBDF8000018B1BDF800002080F2E70C
:1012900000BF00BFFEF7C0FF064600BFFFF7FEF924
:1012A00000BF00202749086000BFFFF711FA00BF08
:1012B0003046FEF7B5FF00BF00BF0025224800689A
:1012C00022490968884205D91F4800681F490968F2
:1012D000B0FBF1F525B91C4800680A21B0FBF1F517
:1012E0006A460021284600F075FD6946144800F062
:1012F000A5FABDF8000018B1BDF800002080BAE7DB
:1013000000BF00BFFEF788FF064600BFFFF7C6F923
:1013100000BF00200E4908600A4800680D490860B7
:1013200001200D49087000BFFFF7D2F900BF304619
:10133000FEF776FF00BF00BF0020208000BF9AE7C5
:10134000402E0020E80000201C5F0008045F000819
:10135000F8000020EC000020F400002010B5034845
:10136000006810B101480068804710BD700000207F
:101370002DE9FF4F87B004469046DDE91BA5DDE966
:101380001496179F0020039095480078002805DDEB
:1013900047F24A1028800BB0BDE8F08F1CB947F225
:1013A000AD102880F7E7B8F1000F03D147F24F10D6
:1013B0002880F0E71EB946F62F602880EBE78948C1
:1013C0000068874203D246F630602880E3E716982B
:1013D000B84203D346F631602880DCE7B9F1400F0C
:1013E00003D346F273202880D5E7B9F1000F06D168
:1013F0007D48844203D046F273202880CBE7B9F1C0
:101400003F0F06D17948844203D046F273202880EA
:10141000C1E7204602F056FD002028800AF00100B6
:1014200090B10AF0020078B105960020069008E01D
:101430000021059801600598001D05900698401C44
:1014400006900698B842F3D3169806EB80000490F5
:10145000CDE9007A32464046049B0A9900F0D8FB59
:101460000590C4F828800A98E0620898206284F801
:101470003790059820600498A060199860651998C5
:1014800018B95B480068A06501E01998A0651A9832
:1014900060606662A763A4F83CA04FF0000B08E010
:1014A000002104F17C0040F82B100BF1010000F04A
:1014B000FF0BBBF1000FF3D004F16400189901F0A9
:1014C000CBFC204600F09EF800BF00BF00BFFEF737
:1014D000A3FE039000BFFFF7E1F800BF4548007886
:1014E000401C4449087008460078012801D102F0E8
:1014F000AFF800BFFFF7ECF800BF0398FEF790FECF
:1015000000BF00BF00BF94F8370001F0C9FE2046BD
:1015100002F002F8204602F08BFC37480088401C9D
:101520003549088035480078012837D000BF00BF12
:1015300000BFFEF771FE039000BFFFF7AFF800BFDA
:101540002C480078401E2B49087008460078D0B916
:1015500002F08CF82A48008800280BDD00BFFFF756
:10156000B7F800BF0398FEF75BFE00BF00BF02F0B4
:1015700041F811E000BFFFF7ABF800BF0398FEF79A
:101580004FFE00BF08E000BFFFF7A2F800BF0398BE
:10159000FEF746FE00BF00BF00BFFCE600BF00BF75
:1015A00000BFFEF739FE039000BFFFF777F800BFDA
:1015B00010480078401E0F4908700846007808B9A6
:1015C00002F054F800BFFFF783F800BF0398FEF75E
:1015D00027FE00BF00BF00BFFFF7CEFB00BFDAE66B
:1015E00080000020185F0008DC280020142800205C
:1015F000D4000020D000002004010020880000203A
:101600009400002010B504460348006818B1204635
:1016100001490968884710BD6000002070B5044684
:101620000D46002678480078002803DD47F24E106A
:10163000288070BD7548844203D147F24C10288041
:10164000F7E77348844203D147F24D102880F0E752
:101650009CB900BF00BFFEF7DFFD064600BFFFF7E5
:101660001DF800BF6B48046800BFFFF731F800BFEA
:101670003046FEF7D5FD00BF00BF00BF00BF00BF72
:10168000FEF7CAFD064600BFFFF708F800BF624834
:101690000078401C6049087008460078012801D194
:1016A00001F0D6FF00BFFFF713F800BF3046FEF78A
:1016B000B7FD00BF00BF00BF94F8360008282DD248
:1016C000DFE800F004090E10080A0F11204601F0AF
:1016D00063FF5EE05DE000BF204603F0F7FA58E0EC
:1016E00000BF00BF00BF204603F0F0FA94F83400BA
:1016F000082810D2DFE800F004070508090A0B06E5
:1017000000BF00BF08E000BF00BF00BF00BF204611
:1017100001F0F8FC00E000BF00BF3AE000BF00BFEE
:1017200000BFFEF779FD064600BFFEF7B7FF00BF1A
:1017300039480078401E3849087008460078D0B90A
:1017400001F094FF3548008800280BDD00BFFEF74C
:10175000BFFF00BF3046FEF763FD00BF00BF01F0D2
:1017600049FF11E000BFFEF7B3FF00BF3046FEF7B0
:1017700057FD00BF08E000BFFEF7AAFF00BF3046DC
:10178000FEF74EFD00BF00BF00BF46F62D6028806B
:101790004FE700BF04F1640001F03CFB204600F07D
:1017A00041F8204602F05CFB1D480088401E1C49A1
:1017B0000880204602F086FBFF2084F8360000BF38
:1017C00000BF00BFFEF728FD064600BFFEF766FF1C
:1017D00000BF11480078401E0F4908700846007885
:1017E00008B901F043FF00BFFEF772FF00BF3046AB
:1017F000FEF716FD00BF00BF00BF00202880FFF7E6
:10180000BBFA00BF15E7000080000020142800206C
:10181000DC28002028010020D000002094000020B7
:101820000401002010B504460348006818B12046A2
:1018300001490968884710BD640000207FB504464F
:101840000D46002600BF00BFFEF7E6FC064600BFBF
:10185000FEF724FF00BF1CB11748006884420CD17A
:1018600000BFFEF735FF00BF3046FEF7D9FC00BFD2
:1018700000BF47F2571028807FBD00BFFEF728FF4A
:1018800000BF3046FEF7CCFC00BF00BF0B4800781D
:1018900000280BDD002000900190034602462146FF
:1018A000CDE90205064801F01FF8E5E72946204684
:1018B00002F0B4FC00BFDFE7280100208000002018
:1018C0005452455310B504460348006818B12046E9
:1018D00001490968884710BD680000202DE9F047DC
:1018E00080460E4614461D464FF000098C4800788D
:1018F000002805DD46F2AE1028800020BDE8F08704
:101900001EB1B6F5004F02D100E000BF04E045F67D
:10191000256028800020F1E700BF0CB10020206086
:1019200000BF00BFFEF778FC814600BFFEF7B6FEA1
:1019300000BF7C480068406CB8B37A480068406CCF
:10194000401E78490968486476480068476C1CB1B5
:1019500074480068006C2060FEF72EFF714909682A
:10196000096C401A6F490968C1F8A4006D48006805
:10197000D0F8A8006B490968D1F8A410884207D2B2
:1019800068480068D0F8A40066490968C1F8A80052
:1019900000BFFEF79DFE00BF4846FEF741FC00BFBA
:1019A00000BF002028803846A8E7FFE706F4004083
:1019B00068B100BFFEF78CFE00BF4846FEF730FC62
:1019C00000BF00BF46F2B0102880002096E75648BE
:1019D000007800280DDD00BFFEF77AFE00BF484604
:1019E000FEF71EFC00BF00BF46F6635028800020B3
:1019F00084E700BF4C480078401C4B4908700846FB
:101A00000078012801D101F023FE00BFFEF760FE3F
:101A100000BF4846FEF704FC00BF00BF00BF4346BE
:101A200007220021084601F0ADFA00BF00BF00BF49
:101A3000FEF7F2FB814600BFFEF730FE00BF3A48DA
:101A40000078401E384908700846007808B901F04F
:101A50000DFE00BFFEF73CFE00BF4846FEF7E0FB70
:101A600000BF00BF00BFFFF787F900BF00BFFEF750
:101A7000D3FB814600BFFEF711FE00BF2948006876
:101A800090F8350020B1012826D0032834D12CE06D
:101A9000FCB124480068006C2060FEF78DFE2149EF
:101AA0000968096C401A1F490968C1F8A4001D485B
:101AB0000068D0F8A8001B490968D1F8A410884232
:101AC00007D218480068D0F8A40016490968C1F880
:101AD000A8000020288013E01CB112480068006CA8
:101AE000206046F2A91028800AE00CB10020206096
:101AF00047F2D920288003E046F62E60288000BFF8
:101B000000BF08480068476C00BFFEF7E1FD00BF5A
:101B10004846FEF785FB00BF00BF3846EEE60000F2
:101B20008000002028010020D00000202DE9F0478F
:101B300005460E4617461C464FF0000A324800780C
:101B4000002804DD47F259102080BDE8F0871EB957
:101B500046F2D5202080F8E71FB946F2D520208034
:101B6000F3E700BF00BFFEF757FB824600BFFEF75A
:101B700095FD00BF0DB925480568286878B900BFF4
:101B8000FEF7A6FD00BF5046FEF74AFB00BF00BFB0
:101B900000203060386047F252102080D5E795F879
:101BA0003C0000F0010078B900BFFEF791FD00BFD6
:101BB0005046FEF735FB00BF00BF002030603860A4
:101BC00047F254102080C0E700BFFEF781FD00BF40
:101BD0005046FEF725FB00BF00BF4FF00008D5F8C8
:101BE000249003E009F1040908F10108D9F8000084
:101BF0000028F7D0C6F80080A86BA0EB080038607A
:101C00000020208000BFA0E78000002028010020E5
:101C1000F0B50446DDE9055602EB85004FF0807C07
:101C2000071F3846C7F800C0071F38463C60DFF87A
:101C30009CC0071F3846C7F800C04FF0123C071F72
:101C40003846C7F800C04FF0033C071F3846C7F8B6
:101C500000C04FF0023C071F3846C7F800C0071FFE
:101C600038463B60071F384639604FF0113C071F6C
:101C70003846C7F800C04FF0103C071F3846C7F879
:101C800000C04FF0093C071F3846C7F800C04FF0AE
:101C9000083C071F3846C7F800C04FF0073C071F35
:101CA0003846C7F800C04FF0063C071F3846C7F853
:101CB00000C04FF0053C071F3846C7F800C04FF082
:101CC000043C071F3846C7F800C0F0BD9943000820
:101CD0007FB505460C461248854203D147F25B109A
:101CE00020807FBD0F48854203D147F25C102080E1
:101CF000F7E70D48007800280BDD002000900190E8
:101D0000034602462946CDE90204084800F0ECFDEE
:101D1000E7E72146284602F01FFE00BFE1E700008A
:101D200014280020DC280020800000205453555344
:101D300070B52448006810B1224800688047FEF75B
:101D40003BFD04462048006820490968884215D0B8
:101D50001D480068D0F89800201A1B490968C1F88E
:101D6000940019480068D0F89C0017490968D1F818
:101D70009410084414490968C1F89C00134800688D
:101D8000C0F89840FEF75EFC05460F480068D0F8A2
:101D9000B400A84203D20C480068C0F8B4500A4806
:101DA0000068D0F8B8000A490968884205D2084896
:101DB000006805490968C1F8B800002004490860B6
:101DC00070BD000074000020280100202C010020BC
:101DD000CC0000202DE9F04105460E4614460027B0
:101DE0004D480078002804DD47F275202080BDE8CA
:101DF000F0814A480078002803DD46F663502080D1
:101E0000F5E736B1022E05D0042E0AD0082E09D1EE
:101E100001E000BF00BF1DB947F27E202080E6E749
:101E200004E003E045F625602080E0E700BF00BF46
:101E300000BF00BFFEF7F0F9074600BFFEF72EFC1B
:101E400000BF36480078401C3449087008460078C6
:101E5000012801D101F0FCFB00BFFEF739FC00BFF7
:101E60003846FEF7DDF900BF00BF00BF01202C4956
:101E7000096881F83600234632462946284800681A
:101E800002F046FE2088F0B100BF00BF00BFFEF7A1
:101E9000C3F9074600BFFEF701FC00BF1F480078EA
:101EA000401E1E4908700846007808B901F0DEFBA4
:101EB00000BFFEF70DFC00BF3846FEF7B1F900BFCA
:101EC00000BF00BF93E71648006801F065FB00BF44
:101ED00000BF00BFFEF7A0F9074600BFFEF7DEFB1C
:101EE00000BF0E480078401E0C4908700846007874
:101EF00008B901F0BBFB00BFFEF7EAFB00BF3846A4
:101F0000FEF78EF900BF00BF00BFFEF735FF0020CF
:101F1000208000BF6BE7000080000020D000002080
:101F2000280100202DE9FF5F05460E46174698461A
:101F3000DDE90EA40020009081480078002804DD2F
:101F400047F275202080BDE8FF9F7E48007800287A
:101F500003DD46F663502080F5E70AF00E0BBBF177
:101F6000000F09D0BBF1020F07D0BBF1040F10D056
:101F7000BBF1080F0ED101E000BF00BFB8F1000FA8
:101F800006D12FB926B91DB947F27E202080DAE7A5
:101F900004E003E045F625602080D4E700BF2AF086
:101FA0001E0008B1012000E00020039003980128E2
:101FB00003D145F625602080C5E7CAF300100290E2
:101FC0000298C0B9B8F57A7F03D347F27B2020800E
:101FD000B9E73B2F03DD47F27A202080B3E73B2EA1
:101FE00003DD47F279202080ADE7632D12DD47F253
:101FF00078202080A7E742F20F70864203DD47F287
:10200000792020809FE7B5F57A7F03DB47F27820BF
:10201000208098E74C48D0F800904FF4FA70B0FB5D
:10202000F9F0404400FB09F04FF47A71B0FBF1F194
:102030004FF461606843C6EB061200EB820038443F
:1020400000FB091001900198002873D000BF00BF69
:1020500000BFFEF7E1F8009000BFFEF71FFB00BFD6
:1020600038480078401C3749087008460078012835
:1020700001D101F0EDFA00BFFEF72AFB00BF009886
:10208000FEF7CEF800BF00BF00BF01202F4909684E
:1020900081F8360023465A462C480199006802F020
:1020A00037FD2088F0B100BF00BF00BFFEF7B4F8D5
:1020B000009000BFFEF7F2FA00BF22480078401EF1
:1020C000204908700846007808B901F0CFFA00BF2F
:1020D000FEF7FEFA00BF0098FEF7A2F800BF00BFAF
:1020E00000BF30E71948006801F056FA00BF00BF92
:1020F00000BFFEF791F8009000BFFEF7CFFA00BFD7
:1021000010480078401E0F4908700846007808B94A
:1021100001F0ACFA00BFFEF7DBFA00BF0098FEF753
:102120007FF800BF00BF00BFFEF726FE0020208022
:1021300003E0FFE747F27E20208000BF03E70000B6
:1021400080000020D00000201C5F00082801002033
:1021500010B586B000F01EF8FEF72EFB044605A869
:1021600000210091CDE9011403900748007800EBAD
:102170004000064A02EB800100231A46044800F0A2
:10218000B3FB06B010BD0000B6000020B02900204F
:102190005449434B10B50348006810B1014800682A
:1021A000804710BD780000202DE9F84F044688468E
:1021B00016461F46DDE90BABDDF828900D9D00208B
:1021C000009041480078002804DD47F24330288021
:1021D000BDE8F88F1CB945F6C3502880F8E7B9F17F
:1021E000010F08D0B9F1020F0BD11FB947F24030EF
:1021F0002880EDE709E01EB947F23F302880E7E785
:1022000003E045F625602880E2E700BF00BF00BF7D
:1022100000BFFEF701F8009000BFFEF73FFA00BFD5
:102220002A480078401C294908700846007801288F
:1022300001D101F00DFA00BFFEF74AFA00BF009885
:10224000FDF7EEFF00BF00BF00BF012084F82A00A9
:102250001F482060C4F8048026620020A061E0616D
:102260006762A4F82890C4F808A0C4F80CB02061F4
:102270006061204602F0DAFE16480088401C1549CD
:10228000088000BF00BF00BFFDF7C6FF009000BF81
:10229000FEF704FA00BF0D480078401E0B49087095
:1022A0000846007808B901F0E1F900BFFEF710FA1E
:1022B00000BF0098FDF7B4FF00BF00BF00BF0020C3
:1022C000288000BF84E7000080000020D0000020AC
:1022D000544D522014010020F8B506460C462948FA
:1022E0000078002804DD47F2433020800020F8BD4C
:1022F00026B947F2423020800020F8E722493068B2
:10230000884204D045F6C45020800020EFE768469C
:10231000FEF786FD96F82A0000B3012812D00228A5
:1023200002D0032822D10EE0304603F001F800214C
:10233000304602F023FF6846FEF7E6FD00202080CD
:1023400001251BE000BF0021304602F017FF684660
:10235000FEF7DAFD0020208001250FE06846FEF739
:10236000D3FD47F23D302080002507E06846FEF7A8
:10237000CBFD47F241302080002500BF00BF28463A
:10238000B5E7000080000020544D5220254A264920
:10239000264A274A2749284A2848294A294A2A4AB0
:1023A0002A4A2B482B482C482C4A2D482D4A2E4887
:1023B0002E4A2F482F4830483048314A314A324A55
:1023C0003248334A334A3448344835483548364829
:1023D00036483748374A384A384A394A39483A48F5
:1023E0003A483B4A3B4A3C4A3C483D483D483E49C6
:1023F0003E483F4A3F4A404A404A414A414A424A8F
:102400004248434A434A44484448454A454A464864
:10241000464A474A47484848484800BF00BF00BFAF
:1024200070470000605F0008C8600008615F000836
:10243000625F0008645F0008685F00086C5F000866
:10244000695F0008945F0008955F0008965F0008C8
:10245000985F00089A5F00089C5F00089E5F000874
:10246000A05F0008C05F0008C25F0008C45F0008EA
:10247000C65F0008C85F0008CA5F0008CC5F00089C
:10248000F85F0008F95F0008FA5F0008FC5F0008C9
:10249000FE5F0008FF5F000800600008026000089F
:1024A0000460000806600008086000080A60000870
:1024B0000C6000083C6000083D6000083E600008B9
:1024C0003F60000840600008426000084460000867
:1024D0006C6000086D6000086E6000086F600008A6
:1024E000706000087260000874600008786000087E
:1024F000796000087A6000087B6000087C60000852
:102500007D6000087E6000087F6000088060000831
:10251000826000088360000884600008866000080C
:1025200088600008896000088C600008C0600008AE
:10253000C1600008C2600008C4600008C6600008EE
:102540000021034A1160034A118001807047000096
:10255000A0000020A40000202DE9F04F85B0044623
:10256000894692469B46DDF838800020009000BFE7
:1025700000BFFDF751FE009000BFFEF78FF800BFCF
:10258000BAF1000F0AD0BAF1010F0DD0BAF5004F21
:1025900005D06FF40040504460B906E000BF206AE7
:1025A00040EA0900206216E000BF206A20EA090024
:1025B000206210E000BFFEF78BF800BF0098FDF727
:1025C0002FFE00BF00BF45F62560A8F800000020E0
:1025D00005B0BDE8F08F00BFC4F824B004F10800D6
:1025E00001900198008968B900BFFEF771F800BF3B
:1025F0000098FDF715FE00BF00BF0020A8F80000FE
:10260000206AE5E700BF71480078401C6F490870F8
:1026100008460078012801D101F01AF800BFFEF742
:1026200057F800BF0098FDF7FBFD00BF00BF00BFDB
:1026300001980768BD6889E07868029095F888007D
:1026400000F00F0003900398012821D002282ED01B
:10265000042802D0082836D10EE0206AD5F8801070
:1026600000EA0106D5F88000B04204D15A4631464E
:10267000284600F0AFF863E0206AD5F8801000EA41
:10268000010626B15A463146284600F0A3F857E025
:10269000D5F88000216A20EA0106D5F88000B04212
:1026A00004D15A463146284600F094F848E0D5F85F
:1026B0008000216A20EA010626B15A4631462846A2
:1026C00000F088F83CE000BF00BF00BFFDF7A4FDAC
:1026D000009000BFFDF7E2FF00BF3C480078401EBD
:1026E0003A49087008460078D0B900F0BFFF384872
:1026F000008800280BDD00BFFDF7EAFF00BF00984F
:10270000FDF78EFD00BF00BF00F074FF11E000BFB9
:10271000FDF7DEFF00BF0098FDF782FD00BF08E077
:1027200000BFFDF7D5FF00BF0098FDF779FD00BFA2
:1027300000BF00BF43F6FF20A8F80000002047E7D5
:1027400000BF029F0FB1BD6800E00025002D7FF49F
:1027500073AF00BF00BF00BFFDF75EFD009000BF7C
:10276000FDF79CFF00BF19480078401E174908700C
:102770000846007808B900F079FF00BFFDF7A8FF10
:1027800000BF0098FDF74CFD00BF00BF00BF0AF47A
:10279000004008B9FEF7F0FA00BF00BFFDF73CFDAE
:1027A000009000BFFDF77AFF00BF206A049000BFD1
:1027B000FDF78EFF00BF0098FDF732FD00BF00BFA0
:1027C0000020A8F80000049802E70000D0000020D4
:1027D0009400002070B504460E4615463434266534
:1027E000002060702070E560A078343C082816D284
:1027F000DFE800F0040508090706101100BF00BF5C
:1028000000BF0DE000BF204601F0FAFC002084F874
:10281000360005E000BF042084F8360000E000BF69
:1028200000BF204600F06EFC70BD0000002400BF19
:102830001DE000BF00BFFDF7EFFC044600BFFDF741
:102840002DFF00BF0A480068401C0949086009487C
:102850000068401C0749086000BFFDF739FF00BF52
:102860002046FDF7DDFC00BF00BFFEF711F9E0E7F1
:102870007C000020E800002010B58AB0044600204B
:102880000E4908600B2000210591CDE9070406914F
:1028900008460B4909680B4A12680B4B1B68CDE9C7
:1028A0000132CDE903103F200023084A08A100901F
:1028B0000C48FEF75DFD0AB010BD00007C00002052
:1028C000C45E0008C05E0008BC5E00082D28000839
:1028D00075432F4F532D4949492049646C65205455
:1028E00061736B00142800202DE9F84F04460D4653
:1028F00016461F46DDE90BABDDF82890DDF8348085
:102900000020009000BF00BFFDF786FC009000BFD4
:10291000FDF7C4FE00BF2C4800882C490988884276
:102920003EDA29480088401C27490880284800884A
:102930000988884203DA2448008825490880254808
:102940000068046023480068856022480068C6600B
:102950002048006807821F480068C0F814901D488E
:102960000068A0F818A01B480068C0F81CB01948FF
:102970000068406817490860012017490881174816
:1029800008604860002000F08BFC1548007818B102
:1029900013480078134908700020A8F8000008E0E8
:1029A00011480088401C1049088044F25360A8F880
:1029B000000000BFFDF78CFE00BF0098FDF730FC63
:1029C00000BF00BFBDE8F88F94000020D05E000873
:1029D000960000208C000020B0290020DC28002078
:1029E000B6000020B8000020980000203EB55948ED
:1029F00000680068584A811A904279D00FDC574924
:102A0000084400283ED056490844A8B15549084416
:102A1000002860D05449084400286AD13FE0534858
:102A20000844002850D052490844002862D0514937
:102A300008440028F1D110E002A8464D00902D680E
:102A4000EB69444D2D682A8B424D2D686969414DD3
:102A50002D68A868FFF780FD7AE002A93D4800686C
:102A6000C0693C4DCDE900012D682B8B394D2D6897
:102A70002A8A384D2D68E968364D2D68A86800F01F
:102A80003FFC65E0334B1B68DA69324B1B68198BDE
:102A9000304B1B68986802AB00F0A0FE58E002A91A
:102AA0002C480068C0692B4DCDE900012D682B8BA7
:102AB000284D2D682A8A274D2D68E968254D2D68F7
:102AC000A86801F067FA43E022490968886802A90A
:102AD00001F0A4FB3CE01F4B1B68DA691D4B1B682F
:102AE000198B1C4B1B68986802AB01F061FC2FE04E
:102AF00007E02CE017490968886802A901F02CFF5B
:102B000026E01D49097801EB41011C4A02EB8100D6
:102B100000F0CAFD0F48006802AB0021C2691848E6
:102B200001F046FC17480068401E16490860084638
:102B3000006858B9144800680860FDF73DFE044677
:102B400002AB22460021114801F032FC00E000BF38
:102B500000BF3EBD900000205449434BADBAB2BE09
:102B60000DF90BFAF2F8F7FF0006F6FF00F7FDF794
:102B700000FFEFFF03FE0FFEB8000020B029002089
:102B8000782D00202401002020010020402E00206C
:102B9000002700BF56E0002652E000BF00BFFDF74F
:102BA0003BFB074600BFFDF779FD00BF26480088C4
:102BB00098B90020254908810860486000F082FB30
:102BC00000BFFDF785FD00BF3846FDF729FB00BFBC
:102BD00000BFFEF7D1F8012632E000BFFDF778FD17
:102BE00000BF3846FDF71CFB00BF00BFFDF7E4FD4A
:102BF0000546FFF7FBFEFDF7DFFD441B14480068A8
:102C0000A04201D21248046000BF00BFFDF704FBE0
:102C1000074600BFFDF742FD00BF0E480068406850
:102C20000C49086008480088401E0749088000BF1A
:102C3000FDF74EFD00BF3846FDF7F2FA00BF00BFBA
:102C4000002EAAD0A7E7000094000020B0290020A1
:102C50009C00002090000020F0B589B005460020BF
:102C6000314908803148006820B944F25260288018
:102C700009B0F0BD2E480088022803DA44F25460FF
:102C80002880F5E700202B4908602848046826467C
:102C9000203600270CE0284820600020A060E0607B
:102CA000208260612083666020342036781C87B2E1
:102CB0001F4800888742EEDB203C1C48066866609F
:102CC0001E4806601E48066000201E4908801E49F6
:102CD00008801E48006818B944F255602880C7E78C
:102CE0001B4800681B490968884203D244F25660B9
:102CF0002880BDE7032000210591CDE90705069155
:102D000013480068144A1268104B1B68CDE9030190
:102D1000CDE9013200910B46104A11A11748FEF788
:102D200027FB00BFA4E7000098000020CC5E00084D
:102D3000D05E00089C0000204E4F4E458C000020C5
:102D4000900000209400002096000020D85E00082B
:102D5000E05E0008185F0008DC5E0008912B0008A8
:102D600075432F4F532D49494920495352205175DE
:102D7000657565205461736B00000000DC2800203D
:102D80000021034A1160034A11800180704700004E
:102D9000A8000020AC00002070B501461A4D2D6837
:102DA0001DB945F21E750D8070BD184D2D881DB9D9
:102DB00045F21D750D80F7E7134D28682A6810321B
:102DC000124D2D886D1EACB2002308E00260002574
:102DD00045600581C560103010325D1CABB2A34266
:102DE000F4DB0025056045600581C560064D2D6852
:102DF000074E3560054D2D88B5800025F58035815D
:102E00000D8000BFD0E70000FC5E0008F45E000803
:102E1000A429002010B5014648894B89002B17DDF5
:102E20000A680C4B1B6813600A4C4B6823602346EE
:102E3000DB884C891B1B074CE38023469B884C890D
:102E40002344044CA38000234B818B810B604B6097
:102E500010BD0000A429002001810022428182814E
:102E600002604260704700002DE9F0410D46DDE947
:102E70000674B0F80AC0B0F80880C44505DB46F215
:102E8000935CA4F800C0BDE8F081DFF8DCC0BCF8BA
:102E900004C0BCF1000F04D145F21D7CA4F800C0B1
:102EA000F1E7DFF8C4C0DCF80010DFF8BC80D1F82F
:102EB00000C0C8F800C0C446BCF804C0ACF1010CA6
:102EC000A8F804C0C446BCF806C00CF1010CA8F870
:102ED00006C0C446BCF808C0B8F80680C44507DA86
:102EE000DFF884C0BCF806C0DFF87C80A8F808C012
:102EF000B0F80AC0BCF1000F0AD1016041604FF088
:102F0000010CA0F80AC04FF0000CC1F800C017E097
:102F100003F0100CBCF1000F07D1066831600160AE
:102F20004FF0000CC1F800C004E0D0F804C0C1F8B4
:102F300000C04160B0F80AC00CF1010CA0F80AC052
:102F4000B0F80CC0B0F80A80C44503DAB0F80AC083
:102F5000A0F80CC04D600A81CF604FF0000CA4F8BF
:102F600000C000BF8FE70000A42900200021034A11
:102F70001160034A1180018070470000B0000020FA
:102F8000B40000202DE9F04105460C4616461F46C8
:102F90001548006880F8346000201349096881F8FA
:102FA000350039461048006800F026FF6CB104F186
:102FB0000808EC60012229460B48006800F016F86A
:102FC0002946404600F06BF806E0002006490968F3
:102FD000C88705490968086303480168204600F06E
:102FE00019F8BDE8F08100002801002010B5C28763
:102FF000016300230AE000244C600C600C614C610A
:103000000C83CC61886020315C1CA3B29342F2DB5C
:1030100010BD000030B548B14568C1F8C45000F19A
:103020000804226893681D6AC56113E091F8345062
:10303000022D02D0072D08D103E007A5C1F8C45026
:1030400007E007A5C1F8C45003E008A5C1F8C450C3
:1030500000BF00BF30BD00005461736B2051000001
:103060005461736B2053656D000000002000000068
:1030700030B507A5C1F8C45000F1080422681AB1A0
:1030800093681D6AC56101E001A5C56130BD0000FE
:103090002000000000210160416001817047F0B50F
:1030A0008E6896F8375007893FB9012707810027B6
:1030B0004F600F600160416023E007897F1C07813A
:1030C000026806E0946894F83770AF4200DD02E0D1
:1030D0005268002AF6D100BF32B900274F6043681A
:1030E0000B60596041600CE017682FB91160002730
:1030F0000F604A60016004E013680B604A60596029
:103100001160F0BD2DE9F0410446256BE68F0AE021
:10311000D5F80C8008F108072946384600F00AF86F
:103120002035701E86B2002EF2DC0020E08720637E
:10313000BDE8F08110B50489012C03D1002404609E
:10314000446011E00C6824B94A68002414600260ED
:103150000AE04C6824B90B6800245C60436003E01B
:103160000B684A685A6013600489641E0481002455
:103170004C600C6010BD2DE9F84306460C4617461E
:103180009846089D94F83600082850D2DFE800F0F1
:103190000405080906072B2C00BF00BF00BF47E04D
:1031A00000BF94F83400032807D143463A4621462D
:1031B0003046009500F03FF803E0E765A4F8608032
:1031C000256436B12046FFF79DFF21463046FFF7C4
:1031D0004FFF204601F014F800203434A0706070D6
:1031E00004F8340924E000BF94F83400032807D120
:1031F00043463A4621463046009500F01CF803E06D
:10320000E765A4F860802564204601F05FFD36B1D3
:103210002046FFF777FF21463046FFF729FF0420BD
:103220003434A0700020607004F8340900E000BF5E
:1032300000BFBDE8F883F0B50446059E086BCD8F4E
:103240000AE0C768A74204D1046142610383C661F2
:1032500004E020306F1EBDB2002DF2DC00BFF0BDD7
:1032600070B50025074C03E005F12000C5B2241D10
:1032700020680028F8D02068FCF7D9FF2844C5B2A0
:10328000284670BD58000020002004E00021034AB9
:1032900042F82010401C0228F8D370475800002044
:1032A00030B5420900F01F030121C3F11F04A14002
:1032B000034C54F822400C43014D45F8224030BDE8
:1032C0005800002030B5420900F01F030121C3F16E
:1032D0001F04A140034C54F822408C43014D45F893
:1032E000224030BD580000200021034A1160034AEB
:1032F0001180018070470000BC000020C000002049
:103300002DE9F04F85B007468A4693461C460020BB
:10331000029000BF00BF00BFFCF77EFF029000BF1D
:10332000FDF7BCF900BF56480078401C54490870AE
:1033300008460078012801D100F08AF900BFFDF7A6
:10334000C7F900BF0298FCF76BFF00BF00BF00BFCA
:1033500007F10806308900284CD104F0100010B99C
:103360004FF0000801E04FF01008DDE90E01434680
:103370005A46CDE90001514607F12000FFF774FDE0
:1033800000BF00BF00BFFCF747FF029000BFFDF782
:1033900085F900BF3A480078401E39490870084650
:1033A0000078D0B900F062F93648008800280BDDBB
:1033B00000BFFDF78DF900BF0298FCF731FF00BF99
:1033C00000BF00F017F911E000BFFDF781F900BF61
:1033D0000298FCF725FF00BF08E000BFFDF778F971
:1033E00000BF0298FCF71CFF00BF00BF00BF05B084
:1033F000BDE8F08F04F4007008B1358900E00125C4
:10340000D6F8009011E0D9F808000390D9F804002C
:1034100004900E985B465246009038460399FFF799
:10342000AAFEDDF81090681E85B2002DEBD100BF1A
:1034300000BF00BFFCF7F0FE029000BFFDF72EF9C1
:1034400000BF0F480078401E0D49087008460078FC
:1034500008B900F00BF900BFFDF73AF900BF029878
:10346000FCF7DEFE00BF00BF00BF04F4004008B957
:10347000FDF782FC00210F98018000BFB7E7000034
:10348000D00000209400002000210AE001EB41025E
:10349000054B03EB820000220281026042604A1C5D
:1034A000D1B24029F2D37047B029002010B50446AC
:1034B00094F83700FFF7F4FE94F8370005490978CF
:1034C000884203D1204600F027F802E0204600F0B1
:1034D00003F810BDB600002010B590F8373003EBAC
:1034E00043030C4C04EB83010B893BB901230B8193
:1034F0000023C36003610860486009E00B895B1C1E
:103500000B810B68C360002303610A6810610860C7
:1035100010BD0000B029002010B590F8373003EB43
:1035200043030B4C04EB83010B893BB901230B8153
:103530000023C36003610860486008E00B895B1CDE
:103540000B810023C3604A680261D060486010BDEF
:10355000B029002010B501460C8924B1012C03D0FC
:10356000022C0CD101E000BF14E008684A68026137
:103570000024C4601461D0600A6048600AE00868F2
:103580004A68C36800241C61C4600261D0600B609B
:10359000486000BF00BF10BD2DE9F041054695F819
:1035A000370000EB4000124901EB80042F69EE6800
:1035B00087B946B9002020812060606095F8370007
:1035C000FFF780FE0EE02089401E20810020306140
:1035D000266007E02089401E2081FE600EB96760EA
:1035E00000E0376100202861E860BDE8F08100005C
:1035F000B029002010B5002400BFFCF70DFE0446E2
:1036000000BF00200D4908700D480E4908600846AB
:103610000068D0F89000401C0968C1F890000A4882
:103620000068401C084908604FF080500749086056
:1036300000BF2046FCF7F4FD00BF10BDB70000201E
:10364000DC2800202C010020FC00002004ED00E01C
:1036500010B504480078012803D1FDF7ADF8024900
:10366000086010BDD0000020C400002010B50A483A
:10367000007880B9FDF7A0F808490968441A08489D
:103680000068A04201D20648046006480068A042D3
:1036900001D20448046010BDD0000020C400002006
:1036A000C8000020CC00002070B505460026354833
:1036B0000078012800D070BD00BF00BFFCF7ACFD52
:1036C000064600BFFCF7EAFF00BF2C684CB900BFFC
:1036D000FCF7FEFF00BF3046FCF7A2FD00BF00BFB5
:1036E000E9E72948844209D100BFFCF7F1FF00BF98
:1036F0003046FCF795FD00BF00BFDCE7A06D10B1C0
:10370000A06D401EA065A06D48B100BFFCF7E0FFB2
:1037100000BF3046FCF784FD00BF00BFCBE728891F
:10372000022809DA00BFFCF7D3FF00BF3046FCF7E0
:1037300077FD00BF00BFBEE714480078002809DD10
:1037400000BFFCF7C5FF00BF3046FCF769FD00BFB6
:1037500000BFB0E72846FFF7FDFE2C68606D18B982
:103760000B480068A06501E0606DA06500BFFCF734
:10377000AFFF00BF3046FCF753FD00BF00BF00BFE6
:1037800099E70000D800002014280020D000002075
:10379000D400002009A1C1610021416108490968E4
:1037A00011B90021816105E0054909688161044979
:1037B0000968486102490860704700002000000065
:1037C000DC0000200021034A1160034A11800180BF
:1037D00070470000DC000020E00000202DE9FF5FC2
:1037E0000446884691461D460020019000BF00BF58
:1037F000FCF712FD019000BFFCF750FF00BF04F181
:1038000008073889002857D10420012804D002284D
:1038100016D004283AD127E0206AFF280FD100BF34
:10382000FCF756FF00BF0198FCF7FAFC00BF00BF91
:1038300046F6C5502880002004B0BDE8F09F26E081
:103840004FF6FF71206A88420DD100BFFCF740FFA0
:1038500000BF0198FCF7E4FC00BF00BF46F6C5506E
:1038600028800020E8E712E0206A401C68B900BF09
:10387000FCF72EFF00BF0198FCF7D2FC00BF00BF91
:1038800046F6C55028800020D6E700E000BF00BF04
:10389000206A401C2062D4F820A0C4F8249000BF05
:1038A000FCF716FF00BF0198FCF7BAFC00BF00BF91
:1038B000002028805046BFE700BF2D480078401CFC
:1038C0002B49087008460078012801D1FFF7C0FE97
:1038D00000BFFCF7FDFE00BF0198FCF7A1FC00BF94
:1038E00000BF00BF08F4007008B13E8900E0012667
:1038F000D7F800B011E0DBF808000290DBF8040014
:10390000039000231A46CDF8009020460299FFF755
:1039100032FCDDF80CB0701E86B2002EEBD1D4F86C
:1039200020A000BF00BF00BFFCF776FC019000BFE5
:10393000FCF7B4FE00BF0E480078401E0C4908702A
:103940000846007808B9FFF791FE00BFFCF7C0FEFB
:1039500000BF0198FCF764FC00BF00BF00BF08F483
:10396000004008B9FDF708FA00202880504663E7B8
:10397000D000002086B00020009000BF06E0D949AA
:103980000968480001AA0021FEF724FAD648007809
:103990000128F4D101A8FDF7ADFB0027D34800684A
:1039A000D0490968884205D9D0480068CD490968DE
:1039B000B0FBF1F727B9CD4800680A21B0FBF1F759
:1039C0008EE1FCF7F9FE8246FCF752FEC84908601A
:1039D00000BF00BFFCF720FC009000BFFCF75EFEBC
:1039E00000BFC4480068C44908600020C14908609D
:1039F00000BFFCF76DFE00BF0098FCF711FC00BF94
:103A000000BFBE480068BC490968884248D9BB4825
:103A10000068BB49884205D242F210700390012031
:103A2000029023E0B5480068B649884205D24FF4B9
:103A30007A7003900A20029018E0B0480068B249FA
:103A4000884203D26420039002900FE0AB480068E4
:103A5000AE49884205D20A2003904FF47A70029052
:103A600004E00120039042F210700290A348016824
:103A70000298B1FBF0F9A049039809684843B0FBEC
:103A8000F9F042F21071081AA1490880A148008893
:103A90000988884208DA9E4800889E49088003E029
:103AA00042F210709A490880FDF758FC002500BFCB
:103AB00000BFFCF7B1FB009000BFFCF7EFFD00BFBB
:103AC0009548046800BFFCF703FE00BF0098FCF7B0
:103AD000A7FB00BF00BF72E000BF00BF00BFFCF744
:103AE0009BFB009000BFFCF7D9FD00BF8B4800781E
:103AF000401C8A49087008460078012801D1FFF768
:103B0000A7FD00BFFCF7E4FD00BF0098FCF788FBB1
:103B100000BF00BF00BF54F89C0F6060002044F855
:103B20009C0900BF00BF00BFFCF776FB009000BF00
:103B3000FCF7B4FD00BF79480078401E7749087053
:103B400008460078D0B9FFF791FD75480088002835
:103B50000BDD00BFFCF7BCFD00BF0098FCF760FB6D
:103B600000BF00BFFFF746FD11E000BFFCF7B0FD4E
:103B700000BF0098FCF754FB00BF08E000BFFCF753
:103B8000A7FD00BF0098FCF74BFB00BF00BF00BFC4
:103B9000D4F8A000054400BF00BFFCF73DFB009037
:103BA00000BFFCF77BFD00BFD4F8C04000BFFCF7AE
:103BB0008FFD00BF0098FCF733FB00BF00BF002C57
:103BC0008AD145B34E48854205D242F21070059025
:103BD0004FF0010B1BE04B48854205D24FF47A7041
:103BE00005904FF00A0B12E04748854203D264204B
:103BF000059083460BE04548854204D20A20059093
:103C00004FF47A7B03E00120059042F2107BB5FB74
:103C1000FBF0049003E0002005900120049000BF19
:103C200000BFFCF7F9FA009000BFFCF737FD00BFBA
:103C30003948046800BFFCF74BFD00BF0098FCF753
:103C4000EFFA00BF00BF2FE0D4F8A0000599484369
:103C50000499B0FBF1F086B242F21070864200D9AE
:103C60000646A4F88C60B4F88E00B04201DAA4F8DD
:103C70008E6001AB04F1AC02111D2046FDF756FF2A
:103C800000BF00BFFCF7C8FA009000BFFCF706FDBC
:103C900000BFD4F8C04000BFFCF71AFD00BF009879
:103CA000FCF7BEFA00BF00BF002CCDD11D48007844
:103CB000012805D100201B49087001A8FDF71AFA58
:103CC000FCF77AFDA0EB0A0817480068404502D2CD
:103CD0001548C0F8008001AA00213846FEF77AF89E
:103CE0006FE60000045F0008F40000201C5F00087D
:103CF00084000020E8000020F0000020EC000020FC
:103D0000801A060000093D00005A62020084D7179D
:103D1000E4000020E600002000010020D000002088
:103D200094000020E2000020F800002010B58AB0C6
:103D3000044600201F4908601F4908601F490860A9
:103D40001F4908701F4908701F48006820B946F6CF
:103D50002B6020800AB010BD1C4800681C4909680F
:103D6000884203D246F62C602080F3E71948007899
:103D70003F2803D346F62A602080EBE7032000218A
:103D80000591CDE907040691084610490968124AD1
:103D900012680D4B1B68CDE90132CDE903100D48C7
:103DA000007800230D4A0EA100901248FDF7E0FABA
:103DB00000BFCFE7E8000020F0000020EC0000206A
:103DC000F4000020E2000020085F0008105F0008F7
:103DD000185F0008005F00080C5F000875390008D4
:103DE00075432F4F532D4949492053746174205412
:103DF00061736B00B02C002038B504460D4685B1C8
:103E00006B4602222946204600F082FEBDF80000E3
:103E100018B9032084F8360006E0022084F8360042
:103E200002E0022084F836002046FFF7B5FB38BDDB
:103E30000021C0F8BC100949096819B90021C0F86F
:103E4000C01007E005490968C0F8C01003490968B7
:103E5000C1F8BC0001490860704700000001002063
:103E6000D0F8BC20D0F8C0104AB90D4B196011B180
:103E70000023C1F8BC300023C0F8C0300FE029B9DE
:103E80000023C2F8C030C0F8BC3008E0C2F8C0104F
:103E9000C1F8BC200023C0F8C030C0F8BC30704767
:103EA000000100200021044A1160044A1180044AE4
:103EB0001160018070470000000100200401002013
:103EC000FC00002070B5044600202060A060606007
:103ED000E06020616061A061E0612BA020620020B1
:103EE0006062A062E0622063E0872064E065A4F87D
:103EF0006000002104F16400FEF7AEFF002044F8EA
:103F0000740F6060E060A0822061743C002506E0D0
:103F1000002104F17C0040F82510681CC5B2002D7A
:103F2000F6D000203434206120676067606084F838
:103F30005600E067A06720814FF0004060610020DC
:103F4000A061E06120626062A4F85800A4F85A0001
:103F5000E0652066FCF730FC064666660020A06639
:103F6000C4F88000C4F8840020706070A070402005
:103F7000E0700020C4F88800C4F88C0004A0C4F8E5
:103F80009000343C70BD00003F5461736B00000032
:103F9000200000002DE9FC4704460F469046994654
:103FA000DDE90A654FF0000A00BF00BF00BFFCF763
:103FB00033F9824600BFFCF771FB00BF8D480078E3
:103FC000401C8C49087008460078012801D1FFF791
:103FD0003FFB00BFFCF77CFB00BF5046FCF720F91D
:103FE00000BF00BF00BF0CB98348046800202880D0
:103FF00094F8360008287CD2DFE800F00405484930
:1040000006074A4B00BF00BF00BF4B464246394639
:1040100004F16400CDE90065FEF726FF00BF00BF94
:1040200000BFFCF7F9F8824600BFFCF737FB00BF82
:1040300070480078401E6F49087008460078D0B973
:10404000FFF714FB6D48008800280BDD00BFFCF76C
:104050003FFB00BF5046FCF7E3F800BF00BFFFF78F
:10406000C9FA11E000BFFCF733FB00BF5046FCF774
:10407000D7F800BF08E000BFFCF72AFB00BF50469E
:10408000FCF7CEF800BF00BF00BFAFE000BF00BF2D
:1040900000BF94F8340002282CD143463A4621460A
:1040A00000200096FFF767F800BF00BF00BFFCF7D5
:1040B000B3F8824600BFFCF7F1FA00BF4D48007824
:1040C000401E4C4908700846007808B9FFF7CEFA40
:1040D00000BFFCF7FDFA00BF5046FCF7A1F800BF97
:1040E00000BF00BF09F40040002843D1FCF744FEA4
:1040F00040E040E04B464246394604F16400CDE9D9
:104100000065FEF7B1FE00BF00BF00BFFCF784F8FA
:10411000824600BFFCF7C2FA00BF36480078401E56
:104120003449087008460078D0B9FFF79FFA334841
:10413000008800280BDD00BFFCF7CAFA00BF50461C
:10414000FCF76EF800BF00BFFFF754FA11E000BFA4
:10415000FCF7BEFA00BF5046FCF762F800BF08E06B
:1041600000BFFCF7B5FA00BF5046FCF759F800BF96
:1041700000BF00BF3AE000BF00BF00BFFCF74CF833
:10418000824600BFFCF78AFA00BF1A480078401E3A
:104190001849087008460078D0B9FFF767FA174841
:1041A000008800280BDD00BFFCF792FA00BF5046E4
:1041B000FCF736F800BF00BFFFF71CFA11E000BFA4
:1041C000FCF786FA00BF5046FCF72AF800BF08E06B
:1041D00000BFFCF77DFA00BF5046FCF721F800BF96
:1041E00000BF00BF46F62D60288000BF00BFBDE8BD
:1041F000FC870000D000002028010020940000204F
:1042000010B50446204600F061FD94F8360000F039
:10421000040010B92046FFF749F910BD70B50446F7
:104220000D46002600BF00BFFBF7F6FF064600BFA5
:10423000FCF734FA00BF0020288094F836000828E4
:104240007ED2DFE800F00405060714566A8000BF3E
:1042500000BF00BF00BFFCF73BFA00BF3046FBF7D2
:10426000DFFF00BF00BF47F2531028808CE000BF83
:1042700048480078401C47490870084600780128E3
:1042800001D1FFF7E5F900BFFCF722FA00BF304685
:10429000FBF7C6FF00BF00BF00BF14F88A0F401E27
:1042A000207014F88A0928B9002084F836002046C6
:1042B000FFF7A6FF00BF00BF00BFFBF7ADFF06463C
:1042C00000BFFCF7EBF900BF32480078401E3149CF
:1042D00008700846007808B9FFF7C8F900BFFCF776
:1042E000F7F900BF3046FBF79BFF00BF00BF00BFE0
:1042F0004AE014F88A0F401E207014F88A0910B999
:10430000012084F8360000BFFCF7E2F900BF304618
:10431000FBF786FF00BF00BF36E014F88A0F401E8F
:10432000207014F88A0910B9022084F8360000BF02
:10433000FCF7CEF900BF3046FBF772FF00BF00E08C
:1043400015E000BF20E014F88A0F401E207014F81A
:104350008A0910B9032084F8360000BFFCF7B8F9C9
:1043600000BF3046FBF75CFF00BF00BF0CE000BFA2
:10437000FCF7AEF900BF3046FBF752FF00BF00BFAD
:1043800046F62D60288070BD00BFFCF7F5FC00BF2D
:10439000F9E70000D000002008B504480068FDF7E8
:1043A00091FA69460020FDF739F908BD280100207F
:1043B0002DE9F8430446884617461D464FF000098C
:1043C00000BF00BF00BFFBF727FF814600BFFCF71F
:1043D00065F900BFFB480078401CFA4908700846A0
:1043E0000078012801D1FFF733F900BFFCF770F91D
:1043F00000BF4846FBF714FF00BF00BF00BF0CB969
:10440000F148046827640020288094F836000828C2
:104410007AD2DFE800F00405FEFD0607FCFB00BFD2
:1044200000BF00BF0420012804D0022843D0042884
:104430006BD184E0606CFF283CD100BF00BF00BF9F
:10444000FBF7EAFE814600BFFCF728F900BFDD4814
:104450000078401EDB49087008460078D0B9FFF7A5
:1044600005F9DA48008800280BDD00BFFCF730F9B9
:1044700000BF4846FBF7D4FE00BF00BFFFF7BAF805
:1044800011E000BFFCF724F900BF4846FBF7C8FE67
:1044900000BF08E000BFFCF71BF900BF4846FBF770
:1044A000BFFE00BF00BF00BF46F6C55028800020F9
:1044B000BDE8F88385E04FF6FF71606C88423DD11E
:1044C00000BF00BF00BFFBF7A7FE814600BFFCF79F
:1044D000E5F800BFBB480078401EBA49087008469E
:1044E0000078E0B9FFF7C2F8B848008800280DDD71
:1044F00000BFFCF7EDF800BF4846FBF791FE00BF98
:1045000000BFFFF777F813E0E2E159E000BFFCF7E6
:10451000DFF800BF4846FBF783FE00BF08E000BF9E
:10452000FCF7D6F800BF4846FBF77AFE00BF00BF95
:1045300000BF46F6C55028800020B9E741E0606C16
:10454000401CD8BB00BF00BF00BFFBF765FE814623
:1045500000BFFCF7A3F800BF9A480078401E9949B5
:10456000087008460078D0B9FFF780F897480088AF
:1045700000280BDD00BFFCF7ABF800BF4846FBF797
:104580004FFE00BF00BFFFF735F811E000BFFCF79A
:104590009FF800BF4846FBF743FE00BF08E000BF9E
:1045A000FCF796F800BF4846FBF73AFE00BF00BF95
:1045B00000BF46F6C5502880002079E7FFE700E0FD
:1045C00000BF00BF606C401C6064666C00BF00BF31
:1045D00000BFFBF721FE814600BFFCF75FF800BF7C
:1045E00078480078401E7749087008460078F8B986
:1045F000FFF73CF875480088002810DD00BFFCF785
:1046000067F800BF4846FBF70BFE03E01EE01CE026
:104610001AE018E000BF00BFFEF7ECFF11E000BF9A
:10462000FCF756F800BF4846FBF7FAFD00BF08E06C
:1046300000BFFCF74DF800BF4846FBF7F1FD00BF97
:1046400000BF00BF80E100BF00BF00BF94F834008E
:1046500007282CD100231A46214618460097FEF75A
:104660008AFD666C00BF00BF00BFFBF7D5FD814629
:1046700000BFFCF713F800BF52480078401E5149B4
:1046800008700846007808B9FEF7F0FF00BFFCF795
:104690001FF800BF4846FBF7C3FD00BF00BF00BFC7
:1046A00008F40040002801D1FCF766FB0FE104206C
:1046B000012804D0022842D0042872D189E0606C1D
:1046C000FF283BD100BF00BF00BFFBF7A5FD81461F
:1046D00000BFFBF7E3FF00BF3A480078401E3949AE
:1046E000087008460078D0B9FEF7C0FF3748008848
:1046F00000280BDD00BFFBF7EBFF00BF4846FBF7D0
:104700008FFD00BF00BFFEF775FF11E000BFFBF794
:10471000DFFF00BF4846FBF783FD00BF08E000BF96
:10472000FBF7D6FF00BF4846FBF77AFD00BF00BF8E
:1047300000BF46F6C55028800020B9E68BE04FF652
:10474000FF71606C884243D100BF00BF00BFFBF720
:1047500063FD814600BFFBF7A1FF00BF1948007849
:10476000401E1849087008460078D8B9FEF77EFF49
:104770001648008800280BDD00BFFBF7A9FF00BF2B
:104780004846FBF74DFD00BF00BFFEF733FF12E0C8
:1047900000BFFBF79DFF00BF4846FBF741FD00BF90
:1047A00009E057E000BFFBF793FF00BF4846FBF767
:1047B00037FD00BF00BF00BF46F6C550288000206F
:1047C00076E60000D00000202801002094000020A0
:1047D00041E0606C401CD8BB00BF00BF00BFFBF7CE
:1047E0001BFD814600BFFBF759FF00BF584800780A
:1047F000401E5749087008460078D0B9FEF736FFCA
:104800005448008800280BDD00BFFBF761FF00BFA4
:104810004846FBF705FD00BF00BFFEF7EBFE11E0C9
:1048200000BFFBF755FF00BF4846FBF7F9FC00BF90
:1048300008E000BFFBF74CFF00BF4846FBF7F0FC69
:1048400000BF00BF00BF46F6C550288000202FE6FD
:10485000FFE700E000BF00BF606C401C6064666C56
:1048600000BF00BF00BFFBF7D7FC814600BFFBF7CE
:1048700015FF00BF36480078401E354908700846CD
:104880000078D0B9FEF7F2FE3248008800280BDD30
:1048900000BFFBF71DFF00BF4846FBF7C1FC00BF90
:1048A00000BFFEF7A7FE11E000BFFBF711FF00BF3E
:1048B0004846FBF7B5FC00BF08E000BFFBF708FF68
:1048C00000BF4846FBF7ACFC00BF00BF00BF3BE0A9
:1048D00000BF00BF00BFFBF79FFC814600BFFBF796
:1048E000DDFE00BF1A480078401E194908700846CE
:1048F0000078D0B9FEF7BAFE1648008800280BDD14
:1049000000BFFBF7E5FE00BF4846FBF789FC00BF90
:1049100000BFFEF76FFE11E000BFFBF7D9FE00BF3E
:104920004846FBF77DFC00BF08E000BFFBF7D0FE68
:1049300000BF4846FBF774FC00BF00BF00BF46F64F
:104940002D602880002600BF00BF3046B0E5000083
:10495000D00000209400002070B504460D460026CB
:1049600000BF00BFFBF758FC064600BFFBF796FEF2
:1049700000BF0CB95A48046859480068844210D1F5
:104980005848007800280CDD00BFFBF7A1FE00BFEF
:104990003046FBF745FC00BF00BF46F66350288059
:1049A00070BD0020288094F83600082873D2DFE814
:1049B00000F0044252627374757600BF4948007873
:1049C000401C4849087008460078012801D1FEF7CC
:1049D0003FFE00BFFBF77CFE00BF3046FBF720FC2C
:1049E00000BF00BF00BF042084F83600012084F817
:1049F0008A002046FEF7D0FD00BF00BF00BFFBF7D6
:104A00000BFC064600BFFBF749FE00BF35480078A7
:104A1000401E344908700846007808B9FEF726FEA3
:104A200000BFFBF755FE00BF3046FBF7F9FB00BFA8
:104A300000BF00BF4FE0052084F83600012084F855
:104A40008A0000BFFBF744FE00BF3046FBF7E8FBDF
:104A500000BF00BF3FE0062084F83600012084F844
:104A60008A0000BFFBF734FE00BF3046FBF7D8FBDF
:104A700000BF00BF2FE0072084F83600012084F833
:104A80008A0000BFFBF724FE00BF3046FBF7C8FBDF
:104A900000BF00BF1FE011E000BF00BF00BF94F8DF
:104AA0008A00401C84F88A0000BFFBF711FE00BF9B
:104AB0003046FBF7B5FB00BF00BF0CE000BFFBF7C3
:104AC00007FE00BF3046FBF7ABFB00BF00BF46F65A
:104AD0002D60288064E700BFFCF74EF900BF5FE758
:104AE00028010020D0000020002108E0064A02EB47
:104AF000C100002202608280C2804A1C91B2034A37
:104B000012889142F2DB704704250020345F0008D0
:104B10002DE9F04F0C4616461D46042E1ED1DFF837
:104B2000A091D9F80090A4EB0909A9F1010313F5AC
:104B3000803F0DD94FF00009C0F84C90C0F850905C
:104B4000C0F81C9047F27E29A5F80090BDE8F08FD0
:104B5000C46403F10109C0F850903FE084B3082E0B
:104B600025D1D0F8489009EB0407DFF85491D9F823
:104B70000090A7EB0909A9F10103A34201D2C76480
:104B800006E0DFF83C91D9F80090A144C0F84C90C1
:104B9000DFF82CA1D0F84C90DAF800A0A9EB0A09B4
:104BA000C0F85090D0F84C90C0F8489016E0DFF86C
:104BB0001091D9F80090A144C0F84C9004650DE024
:104BC000FFE74FF00009C0F84C90C0F85090C0F8D3
:104BD0001C9047F27E29A5F80090B7E7DFF8E4A023
:104BE000BAF800A0D0F84C90B9FBFAFB0AFB1B996D
:104BF0001FFA89F8DFF8D09009EBC802B2F80490E8
:104C0000B9F1000F0BD14FF00009C0F81490C0F8B3
:104C1000189010604FF00109A2F804903EE011686E
:104C200034E0DFF89CA0D1F84C90DAF800A0A9EBB2
:104C30000A09C1F85090D0F85090D1F850A0D14551
:104C40000ED9D1F81490B9F1000F01D049691DE0D7
:104C50004FF00009C0F8149081614861002115E00F
:104C6000D1F81890B9F1000F07D14FF00009C0F842
:104C7000189041618861106007E0D1F818C0C0F851
:104C800018C04161CCF81400886100210029C8D106
:104C9000B2F8049009F10109A2F80490B2F8069064
:104CA000B2F804A0D14503DAB2F80490A2F8069055
:104CB000C2614FF00009A5F8009000BF46E7000070
:104CC00008010020345F00080425002010B5C269E7
:104CD000BAB1002404651468844205D141691160A9
:104CE00039B100248C6104E0816943694B6103B1EF
:104CF0009961002444618461C461C4649488641E21
:104D0000948010BD002006E0054A02EBC00100229D
:104D1000CA80421C90B2034A12889042F4DB70476A
:104D200004250020345F00082DE9F05F4FF0000BF0
:104D300000BF00BF00BFFBF76FFA834600BFFBF761
:104D4000ADFC00BF7A480078401C794908700846DD
:104D50000078012801D1FEF77BFC00BFFBF7B8FC0F
:104D600000BF5846FBF75CFA00BF00BF00BFFBF76F
:104D700023FD05466F480068401C6E4908600846E0
:104D800000686D490988B0FBF1F201FB12001FFABF
:104D900080FA6A4800EBCA08D8F80040002782E091
:104DA000002C7FD0D4F8149094F83600082875D2DF
:104DB000DFE800F00408051B063D075000BF00BFF8
:104DC00000BF6CE05B49E06C0968401A20655949F6
:104DD000E06C0968884206D1002084F8360020463D
:104DE000FFF70EFA00E0012759E05249E06C09682C
:104DF000401A20654F49E06C0968884215D10020AF
:104E0000E065A4F86000FBF7D7FC20642046FEF7BD
:104E100079F92046FFF7F4F900203434A07003201C
:104E20006070002004F8340900E0012737E04149B0
:104E3000E06C0968401A20653E49E06C09688842C8
:104E400006D1042084F836002046FFF73FFF00E03B
:104E5000012724E03749E06C0968401A206535498C
:104E6000E06C0968884217D10020E065A4F8600072
:104E7000FBF7A2FC20642046FEF744F92046FFF72A
:104E800025FF04203434A07003206070002004F853
:104E9000340902E006E001E0012700E000BF00BFA6
:104EA0004C4600E00127002F3FF47AAFFBF784FC6B
:104EB000461B23480068B04201D22148066000BF6B
:104EC00000BF00BFFBF7A8F9834600BFFBF7E6FB76
:104ED00000BF17480078401E154908700846007842
:104EE000D0B9FEF7C3FB1748008800280BDD00BFD0
:104EF000FBF7EEFB00BF5846FBF792F900BF00BF7F
:104F0000FEF778FB11E000BFFBF7E2FB00BF58465D
:104F1000FBF786F900BF08E000BFFBF7D9FB00BF35
:104F20005846FBF77DF900BF00BF00BFBDE8F09F0A
:104F3000D000002008010020345F00080425002074
:104F40000C010020940000201CB500BF0EE001AB56
:104F50006A4600210846FCF7C1FCBDF8040028B9E8
:104F600003480078012801D1FFF7DEFEEFE70000DB
:104F70008800002010B58AB0044600201D49086052
:104F80001D490860FFF7B0FD1C48006820B947F2D2
:104F9000122020800AB010BD19480068194909681C
:104FA000884203D247F213202080F3E716480078A6
:104FB0003F2803D347F211202080EBE70B2000218C
:104FC00005910A46CDE9070406910D4800680F498E
:104FD00009680A4B1B68CDE90131CDE903020A4893
:104FE000007800230A4A0BA100900F48FCF7C0F993
:104FF00000BFCFE7080100200C010020245F00085B
:105000002C5F0008185F0008205F0008285F000878
:10501000494F000875432F4F532D49494920546982
:10502000636B205461736B00782D00200021C162F6
:105030000749096811B90021016305E004490968BD
:10504000016303490968C8620149086070470000AC
:105050001001002070B58AB0044600203149086074
:105060003148006840B1314800682F490968B0FBF9
:10507000F1F02F49086006E02C4800680A21B0FBD7
:10508000F1F02B4908602A4800682A49086000208E
:105090002949086029490860002508E0284800EBF4
:1050A000C5060020B080F0803060681C85B22548BD
:1050B00000888542F2DB2448006820B947F2473077
:1050C00020800AB070BD21480068214909688842E3
:1050D00003D247F248302080F3E71E4800783F288B
:1050E00003D347F246302080EBE70B2000210591E7
:1050F000CDE907040691084614490968164A126862
:10510000114B1B68CDE90132CDE90310114800783D
:105110000023124A12A100901748FCF729F900BF9A
:10512000CFE7000010010020405F00081C5F00086E
:1051300020010020240100201C0100201801002073
:105140008C270020545F0008445F00084C5F000873
:10515000185F00083C5F0008485F000871520008B3
:1051600075432F4F532D4949492054696D6572206D
:105170005461736B00000000402E0020F0B50C4617
:10518000022680F82A60012C05D12D4F466A3F681F
:105190003E4486610CE0066A2EB9294F466A3F6894
:1051A0003E44866104E0264F066A3F683E448661BD
:1051B000244F3F888669B6FBF7FC07FB1C66B5B237
:1051C000214E06EBC502166836B900260661466117
:1051D0001060012696802CE0194F86693F68F61B07
:1051E000C661116820E0164F8E693F68F61BCE61DC
:1051F000C669CF69BE4209D90E690EB1096913E0CB
:10520000002606614161086100210DE04E692EB95A
:105210000026466101614861106004E04B6943610A
:1052200001611861486100210029DCD19688761C53
:105230009680D6889788BE4201DA9688D680F0BDDF
:105240001C010020545F00088C270020002006E08D
:10525000054A02EBC0010022CA80421C90B2034AF8
:1052600012889042F4DB70478C270020545F0008BE
:105270001CB500BF53E001AB6A4600210846FCF7AD
:105280002DFB01A8FBF7CCFDFBF796FA0646244858
:105290000068401C224908600846006821490988C6
:1052A000B0FBF1F201FB12001FFA80FA1E4800EB7E
:1052B000CA08D8F800404FF0000B21E0F4B1D4F850
:1052C00010901749A0690968884214D1204600F05F
:1052D0002FF8208D022804D101212046FFF74EFF30
:1052E00002E0032084F82A00A56815B12046E16891
:1052F000A8474C4604E04FF0010B01E04FF0010BD2
:10530000BBF1000FDAD0FBF757FA871B01A8FBF7B8
:10531000FBFD06480068B84201D204480760AAE7CE
:105320001C010020545F00088C2700201801002079
:10533000F0B5114E36888569B5FBF6F706FB1755B3
:10534000ACB20E4D05EBC4021568854205D101696A
:10535000116039B100254D6104E0416903690B61B9
:1053600003B15961012580F82A5000250561456186
:1053700095886D1E9580F0BD545F00088C27002035
:1053800029B1064A92690243044B9A6104E0034A38
:1053900092698243014B9A617047000000100240FD
:1053A00030B500210022002400232D4D6D6805F04A
:1053B0000C0121B1042905D0082923D105E0294D8C
:1053C000056022E0274D05601FE0254D6D6805F45E
:1053D0007012234D6D6805F48034022505EB92426E
:1053E0001CB9214D554305600BE01D4D6D6805F45A
:1053F00000351DB11C4D5543056002E0194D554364
:10540000056002E0174D056000BF00BF144D6D68D8
:1054100005F0F0010909154D6B5C0568DD4045603C
:105420000F4D6D6805F4E061090A104D6B5C45682D
:10543000DD4085600A4D6D6805F46051C90A0B4D69
:105440006B5C4568DD40C560054D6D6805F4404105
:10545000890B074D6B5CC568B5FBF3F5056130BD85
:105460000010024000127A0000093D0018000020E0
:1054700028000020704710B500F002F810BD0000B1
:105480000CB50020019000903348006840F4803053
:105490003149086000BF3048006800F400300090D7
:1054A0000198401C0190009818B90198B0F5A06FC0
:1054B000F1D12948006800F4003010B101200090BB
:1054C00001E0002000900098012843D123480068A3
:1054D00040F01000214908600846006820F00300F1
:1054E00008600846006840F0020008601A484068FA
:1054F000194948600846406848600846406840F4DA
:10550000806048600846406820F47C104860084687
:10551000406840F4E81048600846006840F0807039
:10552000086000BF0C48006800F000700028F9D047
:105530000948406820F00300074948600846406871
:1055400040F00200486000BF0348406800F00C00D3
:105550000828F9D10CBD00000010024000200240D4
:10556000042808D14FF0E021096941F004014FF00F
:10557000E022116107E04FF0E021096921F0040108
:105580004FF0E0221161704710B5054800780128FE
:1055900005D1FBF769FBFCF7DBFDFBF77BFB10BDDF
:1055A0008800002010B51348006840F00100114940
:1055B000086008464068104908400E49486008469F
:1055C00000680E4908400B4908600846006820F44E
:1055D000802008600846406820F4FE0048604FF4D0
:1055E0001F008860FFF747FF4FF000600449086024
:1055F00010BD0000001002400000FFF8FFFFF6FEA3
:1056000008ED00E010B5FBF72FFB40F225511E48D6
:1056100000F04CF810B31C4800F004F9C4B21B4869
:10562000008800F40040C8B91848008800F48040A1
:1056300060B10A2C03D000201449088020E01348F0
:10564000008840F400401149088019E00D2C06D173
:105650000E48008840F480400C49088010E00B4858
:105660000088C0F30D000A490C5408480088401C0B
:105670000649088008460088C72801DD0020088008
:10568000FBF708FB10BD000000380140340000208B
:10569000AC12002021B1828942F40052828104E0E0
:1056A00082894DF6FF731A408281704770B50246B9
:1056B000002400230025002040F66A16B14200D1E4
:1056C00000BFC1F3421501F01F03012606FA03F3E0
:1056D000012D02D19689334006E0022D02D1168AAF
:1056E000334001E0968A33400C12012606FA04F496
:1056F0001688344013B10CB1012000E0002070BDC9
:10570000F0B50346002400260025002040F66A1765
:10571000B94200D100BF1846C1F3421401F01F0680
:10572000012707FA06F5012C01D10C3004E0022C08
:1057300001D1103000E014301AB107682F43076020
:1057400002E00768AF430760F0BD00002DE9F047B5
:1057500086B005460E460024A24600BFA14600279B
:10576000B08900B100BF2F462C8A4CF6FF70044070
:10577000F08804432C82AC894EF6F3100440B088C4
:1057800031890843718908430443AC81AC8A4FF6E0
:10579000FF400440B0890443AC8201A8FFF700FE3B
:1057A0001F48874202D1DDF810A001E0DDF80CA00F
:1057B000A88900F4004040B10AEBCA0000EB0A10CF
:1057C00031684900B0FBF1F807E00AEBCA0000EBD2
:1057D0000A1031688900B0FBF1F86420B8FBF0F0E2
:1057E00004012009642101FB1089A88900F400400C
:1057F00040B1322000EBC900B0FBF1F000F007002F
:10580000044308E0322000EB09106421B0FBF1F002
:1058100000F00F0004432C8106B0BDE8F0870000C3
:105820000038014001468888C0F30800704700BF77
:10583000FEE7000008B501210820FFF7A1FD4FF4A5
:105840000070ADF8000010208DF8030003208DF8E3
:10585000020069460948FAF7B6FF4FF4007107489D
:10586000FBF745F84FF48070ADF8000048208DF844
:10587000030069460148FAF7A6FF08BD000C014085
:10588000014600BF7047000010B56FF00400FFF73D
:1058900067FE144800681449B0FBF1F01349087022
:1058A000104800681049B0FBF1F411480068C910B5
:1058B000B1FBF0F044430E4800684FF47A71B1FB3D
:1058C000F0F00C4908804FF0E020006940F0020041
:1058D0004FF0E021086108464461006940F0010092
:1058E000086110BD0400002000127A002C00002086
:1058F0001C5F00082E00002070B504460F48007899
:10590000A0B10F48007888B90E480088844206DBB1
:105910000C48008894FBF0F5284600F01FF8094871
:10592000008894FBF0F100FB114084B24FF47A71CF
:1059300004FB01F000F01AF870BD000088000020A0
:10594000800000202E00002008B56846FBF768FAAA
:1059500008BD08B56846FBF7D7FA08BD38B5044658
:105960006A4608212046FCF735FA38BD2DE9F04794
:10597000074600264FF0E020D0F814901148007838
:1059800007FB00F800BFFFF7DFFF4FF0E02085695D
:1059900011E04FF0E0208469AC420CD0AC4202D25E
:1059A000281B064403E0A9EB0400284406442546CE
:1059B000464500D300E0ECE700BFFFF7CAFFBDE8B3
:1059C000F08700002C00002000BF054A128802F07A
:1059D0004002002AF9D0C2B2014B1B1D1A80704749
:1059E0000038014070B504460D4605480068401C6B
:1059F000034908600846016802A0FAF725FC70BD5B
:105A00000000002031307320746F20676F21206305
:105A10006E74203D2025642E0D0A00000EB500BFD7
:105A20000BE006A0FAF710FC02A800210B460122A9
:105A3000CDE900100846FCF775FAF2E7546869737F
:105A40002069732048494748205441534B210D0A8F
:105A5000000000000EB500BF11E009A0FAF7F4FB4A
:105A60000C480068C0430C49C1F8B00102A80021ED
:105A70000B460122CDE900100846FCF753FAECE78B
:105A800054686973206973204C4544205441534B3A
:105A9000210D0A00B08121420080214208B500BFDB
:105AA00069460948FCF718FC0DE00020FAF726FFCC
:105AB000012805D105480068C0430549C1F8A40183
:105AC00004A0FAF7C1FBF0E778120020A48121427C
:105AD0000080214254686973206973204C6F7720DD
